{
  "contractName": "CaseRegister",
  "abi": [
    {
      "constant": false,
      "inputs": [
        {
          "name": "_address",
          "type": "address"
        },
        {
          "name": "_stationName",
          "type": "string"
        },
        {
          "name": "_stationName",
          "type": "string"
        },
        {
          "name": "_caseFileNo",
          "type": "uint256"
        },
        {
          "name": "_fir",
          "type": "string"
        },
        {
          "name": "_petetioners",
          "type": "uint256[]"
        },
        {
          "name": "_courtId",
          "type": "uint256"
        },
        {
          "name": "_status",
          "type": "uint8"
        }
      ],
      "name": "setPoliceStation",
      "outputs": [],
      "payable": false,
      "stateMutability": "nonpayable",
      "type": "function"
    },
    {
      "constant": true,
      "inputs": [
        {
          "name": "_address",
          "type": "address"
        }
      ],
      "name": "getStationDetails",
      "outputs": [
        {
          "name": "",
          "type": "address"
        },
        {
          "name": "",
          "type": "uint256"
        },
        {
          "name": "",
          "type": "string"
        },
        {
          "name": "",
          "type": "string"
        },
        {
          "name": "",
          "type": "uint256"
        },
        {
          "name": "",
          "type": "uint256[]"
        },
        {
          "name": "",
          "type": "uint256"
        },
        {
          "name": "",
          "type": "uint8"
        }
      ],
      "payable": false,
      "stateMutability": "view",
      "type": "function"
    },
    {
      "constant": false,
      "inputs": [
        {
          "name": "_caseNo",
          "type": "uint256"
        },
        {
          "name": "_caseName",
          "type": "string"
        },
        {
          "name": "_caseCategory",
          "type": "uint8"
        },
        {
          "name": "_caseFileNo",
          "type": "uint256"
        },
        {
          "name": "_fir",
          "type": "string"
        },
        {
          "name": "_petetioners",
          "type": "uint256[]"
        },
        {
          "name": "_courtId",
          "type": "uint256"
        },
        {
          "name": "_status",
          "type": "uint8"
        }
      ],
      "name": "newCase",
      "outputs": [],
      "payable": false,
      "stateMutability": "nonpayable",
      "type": "function"
    },
    {
      "constant": true,
      "inputs": [
        {
          "name": "_caseNo",
          "type": "uint256"
        }
      ],
      "name": "getCaseDetails",
      "outputs": [
        {
          "name": "",
          "type": "uint256"
        },
        {
          "name": "",
          "type": "string"
        },
        {
          "name": "",
          "type": "uint8"
        },
        {
          "name": "",
          "type": "string"
        },
        {
          "name": "",
          "type": "uint256"
        },
        {
          "name": "",
          "type": "uint256[]"
        },
        {
          "name": "",
          "type": "uint256"
        },
        {
          "name": "",
          "type": "uint8"
        }
      ],
      "payable": false,
      "stateMutability": "view",
      "type": "function"
    }
  ],
  "bytecode": "0x60806040526001805534801561001457600080fd5b50610e1e806100246000396000f3fe608060405260043610610062576000357c0100000000000000000000000000000000000000000000000000000000900463ffffffff168063189f987b14610067578063ab03f2d51461014f578063b057a46114610253578063c3a906351461047f575b600080fd5b34801561007357600080fd5b5061014d6004803603604081101561008a57600080fd5b81019080803573ffffffffffffffffffffffffffffffffffffffff169060200190929190803590602001906401000000008111156100c757600080fd5b8201836020820111156100d957600080fd5b803590602001918460018302840111640100000000831117156100fb57600080fd5b91908080601f016020809104026020016040519081016040528093929190818152602001838380828437600081840152601f19601f820116905080830192505050505050509192919290505050610626565b005b34801561015b57600080fd5b5061019e6004803603602081101561017257600080fd5b81019080803573ffffffffffffffffffffffffffffffffffffffff16906020019092919050505061071f565b604051808473ffffffffffffffffffffffffffffffffffffffff1673ffffffffffffffffffffffffffffffffffffffff16815260200183815260200180602001828103825283818151815260200191508051906020019080838360005b838110156102165780820151818401526020810190506101fb565b50505050905090810190601f1680156102435780820380516001836020036101000a031916815260200191505b5094505050505060405180910390f35b34801561025f57600080fd5b5061047d600480360361010081101561027757600080fd5b81019080803590602001909291908035906020019064010000000081111561029e57600080fd5b8201836020820111156102b057600080fd5b803590602001918460018302840111640100000000831117156102d257600080fd5b91908080601f016020809104026020016040519081016040528093929190818152602001838380828437600081840152601f19601f820116905080830192505050505050509192919290803560ff169060200190929190803590602001909291908035906020019064010000000081111561034c57600080fd5b82018360208201111561035e57600080fd5b8035906020019184600183028401116401000000008311171561038057600080fd5b91908080601f016020809104026020016040519081016040528093929190818152602001838380828437600081840152601f19601f820116905080830192505050505050509192919290803590602001906401000000008111156103e357600080fd5b8201836020820111156103f557600080fd5b8035906020019184602083028401116401000000008311171561041757600080fd5b919080806020026020016040519081016040528093929190818152602001838360200280828437600081840152601f19601f82011690508083019250505050505050919291929080359060200190929190803560ff16906020019092919050505061089a565b005b34801561048b57600080fd5b506104b8600480360360208110156104a257600080fd5b81019080803590602001909291905050506109d2565b60405180898152602001806020018860028111156104d257fe5b60ff16815260200180602001878152602001806020018681526020018560018111156104fa57fe5b60ff16815260200184810384528b818151815260200191508051906020019080838360005b8381101561053a57808201518184015260208101905061051f565b50505050905090810190601f1680156105675780820380516001836020036101000a031916815260200191505b50848103835289818151815260200191508051906020019080838360005b838110156105a0578082015181840152602081019050610585565b50505050905090810190601f1680156105cd5780820380516001836020036101000a031916815260200191505b50848103825287818151815260200191508051906020019060200280838360005b838110156106095780820151818401526020810190506105ee565b505050509050019b50505050505050505050505060405180910390f35b60606040519081016040528060015481526020018281526020018373ffffffffffffffffffffffffffffffffffffffff168152506000808473ffffffffffffffffffffffffffffffffffffffff1673ffffffffffffffffffffffffffffffffffffffff1681526020019081526020016000206000820151816000015560208201518160010190805190602001906106be929190610c6c565b5060408201518160020160006101000a81548173ffffffffffffffffffffffffffffffffffffffff021916908373ffffffffffffffffffffffffffffffffffffffff1602179055509050506001600081548092919060010191905055505050565b600080606061072c610cec565b6000808673ffffffffffffffffffffffffffffffffffffffff1673ffffffffffffffffffffffffffffffffffffffff1681526020019081526020016000206060604051908101604052908160008201548152602001600182018054600181600116156101000203166002900480601f0160208091040260200160405190810160405280929190818152602001828054600181600116156101000203166002900480156108195780601f106107ee57610100808354040283529160200191610819565b820191906000526020600020905b8154815290600101906020018083116107fc57829003601f168201915b505050505081526020016002820160009054906101000a900473ffffffffffffffffffffffffffffffffffffffff1673ffffffffffffffffffffffffffffffffffffffff1673ffffffffffffffffffffffffffffffffffffffff16815250509050806040015181600001518260200151809050935093509350509193909250565b610100604051908101604052808981526020018881526020018760028111156108bf57fe5b81526020018581526020018681526020018481526020018381526020018260018111156108e857fe5b815250600260008a8152602001908152602001600020600082015181600001556020820151816001019080519060200190610924929190610c6c565b5060408201518160020160006101000a81548160ff0219169083600281111561094957fe5b0217905550606082015181600301908051906020019061096a929190610c6c565b506080820151816004015560a0820151816005019080519060200190610991929190610d24565b5060c0820151816006015560e08201518160070160006101000a81548160ff021916908360018111156109c057fe5b02179055509050505050505050505050565b6000606060006060600060606000806109e9610d71565b600260008b8152602001908152602001600020610100604051908101604052908160008201548152602001600182018054600181600116156101000203166002900480601f016020809104026020016040519081016040528092919081815260200182805460018160011615610100020316600290048015610aac5780601f10610a8157610100808354040283529160200191610aac565b820191906000526020600020905b815481529060010190602001808311610a8f57829003601f168201915b505050505081526020016002820160009054906101000a900460ff166002811115610ad357fe5b6002811115610ade57fe5b8152602001600382018054600181600116156101000203166002900480601f016020809104026020016040519081016040528092919081815260200182805460018160011615610100020316600290048015610b7b5780601f10610b5057610100808354040283529160200191610b7b565b820191906000526020600020905b815481529060010190602001808311610b5e57829003601f168201915b505050505081526020016004820154815260200160058201805480602002602001604051908101604052809291908181526020018280548015610bdd57602002820191906000526020600020905b815481526020019060010190808311610bc9575b50505050508152602001600682015481526020016007820160009054906101000a900460ff166001811115610c0e57fe5b6001811115610c1957fe5b815250509050806000015181602001518260400151836060015184608001518560a001518660c001518760e001518696508494508292509850985098509850985098509850985050919395975091939597565b828054600181600116156101000203166002900490600052602060002090601f016020900481019282601f10610cad57805160ff1916838001178555610cdb565b82800160010185558215610cdb579182015b82811115610cda578251825591602001919060010190610cbf565b5b509050610ce89190610dcd565b5090565b6060604051908101604052806000815260200160608152602001600073ffffffffffffffffffffffffffffffffffffffff1681525090565b828054828255906000526020600020908101928215610d60579160200282015b82811115610d5f578251825591602001919060010190610d44565b5b509050610d6d9190610dcd565b5090565b61010060405190810160405280600081526020016060815260200160006002811115610d9957fe5b81526020016060815260200160008152602001606081526020016000815260200160006001811115610dc757fe5b81525090565b610def91905b80821115610deb576000816000905550600101610dd3565b5090565b9056fea165627a7a72305820a907180f7787df2430f61fabfec9250ebf839e5f46013fc0f11d8fb0f1d7a0e80029",
  "source": "pragma solidity ^0.5.0;\n\nimport \"./PoliceStation.sol\";\n\ncontract CaseRegister is PoliceStation{\n    \n    enum CaseStatus {active,inactive}\n    enum CaseCategory {criminal,petty,civil}\n    \n    struct caseDetails{\n        uint caseNo;\n        string caseName;\n        CaseCategory caseCategory;\n        string FIR;\n        //string firFile;\n        uint caseFileNo;\n        uint[] petitioners;// array of petiioner id\n        uint courtId;\n        CaseStatus status; \n        \n    }\n    \n    mapping(uint=>caseDetails) caseReg;//mapping case number with the case details struct\n    \n    function newCase(uint _caseNo,string memory _caseName,CaseCategory _caseCategory,uint _caseFileNo,string memory _fir,uint[] memory _petetioners,uint _courtId,CaseStatus _status) public{\n        caseReg[_caseNo]=caseDetails(_caseNo,_caseName,_caseCategory,_fir,_caseFileNo,_petetioners,_courtId,_status);\n    }\n    \n    function getCaseDetails(uint _caseNo) public view returns(uint,string memory,CaseCategory,string memory,uint,uint[] memory,uint,CaseStatus){\n        caseDetails memory cd = caseReg[_caseNo];\n        return (cd.caseNo,cd.caseName,cd.caseCategory,cd.FIR,cd.caseFileNo,cd.petitioners,cd.courtId,cd.status);\n    }\n    \n}\n",
  "sourcePath": "/home/deepu/Deepu/CED program/practical/project/contracts/CaseRegister.sol",
  "compiler": {
    "name": "solc",
    "version": "0.5.0+commit.1d4f565a.Emscripten.clang"
  },
  "schemaVersion": "3.0.9",
  "updatedAt": "2019-05-24T20:00:10.048Z",
  "devdoc": {
    "methods": {}
  },
  "userdoc": {
    "methods": {}
  }
}