{
  "contractName": "CaseRegister",
  "abi": [
    {
      "constant": false,
      "inputs": [
        {
          "name": "_address",
          "type": "address"
        },
        {
          "name": "_stationName",
          "type": "string"
        }
      ],
      "name": "setPoliceStation",
      "outputs": [
        {
          "name": "",
          "type": "address"
        }
      ],
      "payable": false,
      "stateMutability": "nonpayable",
      "type": "function"
    },
    {
      "constant": true,
      "inputs": [
        {
          "name": "_id",
          "type": "uint256"
        }
      ],
      "name": "getOficerDetails",
      "outputs": [
        {
          "name": "",
          "type": "uint256"
        },
        {
          "name": "",
          "type": "string"
        },
        {
          "name": "",
          "type": "uint8"
        }
      ],
      "payable": false,
      "stateMutability": "view",
      "type": "function"
    },
    {
      "constant": false,
      "inputs": [
        {
          "name": "_name",
          "type": "string"
        },
        {
          "name": "_rank",
          "type": "uint8"
        }
      ],
      "name": "setOfficer",
      "outputs": [],
      "payable": false,
      "stateMutability": "nonpayable",
      "type": "function"
    },
    {
      "constant": true,
      "inputs": [],
      "name": "civilianNumber",
      "outputs": [
        {
          "name": "",
          "type": "uint256"
        }
      ],
      "payable": false,
      "stateMutability": "view",
      "type": "function"
    },
    {
      "constant": true,
      "inputs": [
        {
          "name": "_number",
          "type": "uint256"
        }
      ],
      "name": "getCivilian",
      "outputs": [
        {
          "name": "",
          "type": "uint256"
        },
        {
          "name": "",
          "type": "string"
        },
        {
          "name": "",
          "type": "uint8"
        },
        {
          "name": "",
          "type": "string"
        },
        {
          "name": "",
          "type": "uint256"
        },
        {
          "name": "",
          "type": "string"
        }
      ],
      "payable": false,
      "stateMutability": "view",
      "type": "function"
    },
    {
      "constant": true,
      "inputs": [],
      "name": "courtId",
      "outputs": [
        {
          "name": "",
          "type": "uint256"
        }
      ],
      "payable": false,
      "stateMutability": "view",
      "type": "function"
    },
    {
      "constant": false,
      "inputs": [
        {
          "name": "_name",
          "type": "string"
        },
        {
          "name": "_court_type",
          "type": "uint8"
        },
        {
          "name": "_court_hierarchi",
          "type": "uint8"
        },
        {
          "name": "_judgeName",
          "type": "string"
        }
      ],
      "name": "addCourt",
      "outputs": [],
      "payable": false,
      "stateMutability": "nonpayable",
      "type": "function"
    },
    {
      "constant": true,
      "inputs": [],
      "name": "officerId",
      "outputs": [
        {
          "name": "",
          "type": "uint256"
        }
      ],
      "payable": false,
      "stateMutability": "view",
      "type": "function"
    },
    {
      "constant": true,
      "inputs": [
        {
          "name": "_address",
          "type": "address"
        }
      ],
      "name": "getStationDetails",
      "outputs": [
        {
          "name": "",
          "type": "address"
        },
        {
          "name": "",
          "type": "uint256"
        },
        {
          "name": "",
          "type": "string"
        }
      ],
      "payable": false,
      "stateMutability": "view",
      "type": "function"
    },
    {
      "constant": true,
      "inputs": [],
      "name": "caseFileNo",
      "outputs": [
        {
          "name": "",
          "type": "uint256"
        }
      ],
      "payable": false,
      "stateMutability": "view",
      "type": "function"
    },
    {
      "constant": true,
      "inputs": [],
      "name": "caseNo",
      "outputs": [
        {
          "name": "",
          "type": "uint256"
        }
      ],
      "payable": false,
      "stateMutability": "view",
      "type": "function"
    },
    {
      "constant": false,
      "inputs": [
        {
          "name": "_name",
          "type": "string"
        },
        {
          "name": "_idType",
          "type": "uint8"
        },
        {
          "name": "_id",
          "type": "string"
        },
        {
          "name": "_age",
          "type": "uint256"
        },
        {
          "name": "_pics",
          "type": "string"
        }
      ],
      "name": "addCivilian",
      "outputs": [],
      "payable": false,
      "stateMutability": "nonpayable",
      "type": "function"
    },
    {
      "constant": true,
      "inputs": [
        {
          "name": "_number",
          "type": "uint256"
        }
      ],
      "name": "getCourtDetails",
      "outputs": [
        {
          "name": "",
          "type": "uint256"
        },
        {
          "name": "",
          "type": "string"
        },
        {
          "name": "",
          "type": "uint8"
        },
        {
          "name": "",
          "type": "uint8"
        },
        {
          "name": "",
          "type": "string"
        }
      ],
      "payable": false,
      "stateMutability": "view",
      "type": "function"
    },
    {
      "constant": false,
      "inputs": [
        {
          "name": "_caseName",
          "type": "string"
        },
        {
          "name": "_caseCategory",
          "type": "uint8"
        },
        {
          "name": "_fir",
          "type": "string"
        },
        {
          "name": "_petetioners",
          "type": "uint256[]"
        },
        {
          "name": "_accused",
          "type": "uint256[]"
        },
        {
          "name": "_courtId",
          "type": "uint256"
        },
        {
          "name": "_officerId",
          "type": "uint256"
        },
        {
          "name": "_status",
          "type": "uint8"
        }
      ],
      "name": "newCase",
      "outputs": [],
      "payable": false,
      "stateMutability": "nonpayable",
      "type": "function"
    },
    {
      "constant": true,
      "inputs": [
        {
          "name": "_caseNo",
          "type": "uint256"
        }
      ],
      "name": "getCaseDetails",
      "outputs": [
        {
          "name": "",
          "type": "uint256"
        },
        {
          "name": "",
          "type": "string"
        },
        {
          "name": "",
          "type": "uint8"
        },
        {
          "name": "",
          "type": "string"
        },
        {
          "name": "",
          "type": "uint256"
        },
        {
          "name": "",
          "type": "uint256[]"
        },
        {
          "name": "",
          "type": "uint256"
        },
        {
          "name": "",
          "type": "uint8"
        }
      ],
      "payable": false,
      "stateMutability": "view",
      "type": "function"
    },
    {
      "constant": false,
      "inputs": [],
      "name": "allocateCoins",
      "outputs": [
        {
          "name": "",
          "type": "bool"
        }
      ],
      "payable": true,
      "stateMutability": "payable",
      "type": "function"
    },
    {
      "constant": false,
      "inputs": [
        {
          "name": "_address",
          "type": "address"
        }
      ],
      "name": "withdrowCoins",
      "outputs": [
        {
          "name": "",
          "type": "bool"
        }
      ],
      "payable": true,
      "stateMutability": "payable",
      "type": "function"
    }
  ],
  "bytecode": "0x608060405260006001556000600255600060045560006006556000600855600060095534801561002e57600080fd5b506123998061003e6000396000f3fe6080604052600436106100eb576000357c010000000000000000000000000000000000000000000000000000000090048063189f987b146100f0578063237b9a2c1461021857806349e054c01461023a578063522593631461029657806353e3c81c1461036657806355bf5a551461043b578063578361ea14610466578063774ea7831461061557806389a3c774146106405780639729b3ea146107b9578063a978ae53146107e4578063ab03f2d514610a9a578063c01817a414610b9e578063c3a9063514610bc9578063ce7a99d414610d70578063d8739b0d14610d9b578063e8c8430014610fa8575b600080fd5b3480156100fc57600080fd5b506101d66004803603604081101561011357600080fd5b81019080803573ffffffffffffffffffffffffffffffffffffffff1690602001909291908035906020019064010000000081111561015057600080fd5b82018360208201111561016257600080fd5b8035906020019184600183028401116401000000008311171561018457600080fd5b91908080601f016020809104026020016040519081016040528093929190818152602001838380828437600081840152601f19601f8201169050808301925050505050505091929192905050506110f9565b604051808273ffffffffffffffffffffffffffffffffffffffff1673ffffffffffffffffffffffffffffffffffffffff16815260200191505060405180910390f35b6102206111f9565b604051808215151515815260200191505060405180910390f35b61027c6004803603602081101561025057600080fd5b81019080803573ffffffffffffffffffffffffffffffffffffffff16906020019092919050505061122e565b604051808215151515815260200191505060405180910390f35b3480156102a257600080fd5b506102cf600480360360208110156102b957600080fd5b810190808035906020019092919050505061127c565b604051808481526020018060200183600b8111156102e957fe5b60ff168152602001828103825284818151815260200191508051906020019080838360005b8381101561032957808201518184015260208101905061030e565b50505050905090810190601f1680156103565780820380516001836020036101000a031916815260200191505b5094505050505060405180910390f35b34801561037257600080fd5b506104396004803603604081101561038957600080fd5b81019080803590602001906401000000008111156103a657600080fd5b8201836020820111156103b857600080fd5b803590602001918460018302840111640100000000831117156103da57600080fd5b91908080601f016020809104026020016040519081016040528093929190818152602001838380828437600081840152601f19601f820116905080830192505050505050509192919290803560ff1690602001909291905050506113a4565b005b34801561044757600080fd5b5061045061144b565b6040518082815260200191505060405180910390f35b34801561047257600080fd5b5061049f6004803603602081101561048957600080fd5b8101908080359060200190929190505050611451565b60405180878152602001806020018660028111156104b957fe5b60ff1681526020018060200185815260200180602001848103845289818151815260200191508051906020019080838360005b838110156105075780820151818401526020810190506104ec565b50505050905090810190601f1680156105345780820380516001836020036101000a031916815260200191505b50848103835287818151815260200191508051906020019080838360005b8381101561056d578082015181840152602081019050610552565b50505050905090810190601f16801561059a5780820380516001836020036101000a031916815260200191505b50848103825285818151815260200191508051906020019080838360005b838110156105d35780820151818401526020810190506105b8565b50505050905090810190601f1680156106005780820380516001836020036101000a031916815260200191505b50995050505050505050505060405180910390f35b34801561062157600080fd5b5061062a6116ea565b6040518082815260200191505060405180910390f35b34801561064c57600080fd5b506107b76004803603608081101561066357600080fd5b810190808035906020019064010000000081111561068057600080fd5b82018360208201111561069257600080fd5b803590602001918460018302840111640100000000831117156106b457600080fd5b91908080601f016020809104026020016040519081016040528093929190818152602001838380828437600081840152601f19601f820116905080830192505050505050509192919290803560ff169060200190929190803560ff1690602001909291908035906020019064010000000081111561073157600080fd5b82018360208201111561074357600080fd5b8035906020019184600183028401116401000000008311171561076557600080fd5b91908080601f016020809104026020016040519081016040528093929190818152602001838380828437600081840152601f19601f8201169050808301925050505050505091929192905050506116f0565b005b3480156107c557600080fd5b506107ce6117f6565b6040518082815260200191505060405180910390f35b3480156107f057600080fd5b50610a98600480360361010081101561080857600080fd5b810190808035906020019064010000000081111561082557600080fd5b82018360208201111561083757600080fd5b8035906020019184600183028401116401000000008311171561085957600080fd5b91908080601f016020809104026020016040519081016040528093929190818152602001838380828437600081840152601f19601f820116905080830192505050505050509192919290803560ff169060200190929190803590602001906401000000008111156108c957600080fd5b8201836020820111156108db57600080fd5b803590602001918460018302840111640100000000831117156108fd57600080fd5b91908080601f016020809104026020016040519081016040528093929190818152602001838380828437600081840152601f19601f8201169050808301925050505050505091929192908035906020019064010000000081111561096057600080fd5b82018360208201111561097257600080fd5b8035906020019184602083028401116401000000008311171561099457600080fd5b919080806020026020016040519081016040528093929190818152602001838360200280828437600081840152601f19601f820116905080830192505050505050509192919290803590602001906401000000008111156109f457600080fd5b820183602082011115610a0657600080fd5b80359060200191846020830284011164010000000083111715610a2857600080fd5b919080806020026020016040519081016040528093929190818152602001838360200280828437600081840152601f19601f8201169050808301925050505050505091929192908035906020019092919080359060200190929190803560ff1690602001909291905050506117fc565b005b348015610aa657600080fd5b50610ae960048036036020811015610abd57600080fd5b81019080803573ffffffffffffffffffffffffffffffffffffffff169060200190929190505050611993565b604051808473ffffffffffffffffffffffffffffffffffffffff1673ffffffffffffffffffffffffffffffffffffffff16815260200183815260200180602001828103825283818151815260200191508051906020019080838360005b83811015610b61578082015181840152602081019050610b46565b50505050905090810190601f168015610b8e5780820380516001836020036101000a031916815260200191505b5094505050505060405180910390f35b348015610baa57600080fd5b50610bb3611b0e565b6040518082815260200191505060405180910390f35b348015610bd557600080fd5b50610c0260048036036020811015610bec57600080fd5b8101908080359060200190929190505050611b14565b6040518089815260200180602001886002811115610c1c57fe5b60ff1681526020018060200187815260200180602001868152602001856001811115610c4457fe5b60ff16815260200184810384528b818151815260200191508051906020019080838360005b83811015610c84578082015181840152602081019050610c69565b50505050905090810190601f168015610cb15780820380516001836020036101000a031916815260200191505b50848103835289818151815260200191508051906020019080838360005b83811015610cea578082015181840152602081019050610ccf565b50505050905090810190601f168015610d175780820380516001836020036101000a031916815260200191505b50848103825287818151815260200191508051906020019060200280838360005b83811015610d53578082015181840152602081019050610d38565b505050509050019b50505050505050505050505060405180910390f35b348015610d7c57600080fd5b50610d85611e11565b6040518082815260200191505060405180910390f35b348015610da757600080fd5b50610fa6600480360360a0811015610dbe57600080fd5b8101908080359060200190640100000000811115610ddb57600080fd5b820183602082011115610ded57600080fd5b80359060200191846001830284011164010000000083111715610e0f57600080fd5b91908080601f016020809104026020016040519081016040528093929190818152602001838380828437600081840152601f19601f820116905080830192505050505050509192919290803560ff16906020019092919080359060200190640100000000811115610e7f57600080fd5b820183602082011115610e9157600080fd5b80359060200191846001830284011164010000000083111715610eb357600080fd5b91908080601f016020809104026020016040519081016040528093929190818152602001838380828437600081840152601f19601f8201169050808301925050505050505091929192908035906020019092919080359060200190640100000000811115610f2057600080fd5b820183602082011115610f3257600080fd5b80359060200191846001830284011164010000000083111715610f5457600080fd5b91908080601f016020809104026020016040519081016040528093929190818152602001838380828437600081840152601f19601f820116905080830192505050505050509192919290505050611e17565b005b348015610fb457600080fd5b50610fe160048036036020811015610fcb57600080fd5b8101908080359060200190929190505050611f17565b6040518086815260200180602001856001811115610ffb57fe5b60ff16815260200184600881111561100f57fe5b60ff16815260200180602001838103835287818151815260200191508051906020019080838360005b83811015611053578082015181840152602081019050611038565b50505050905090810190601f1680156110805780820380516001836020036101000a031916815260200191505b50838103825284818151815260200191508051906020019080838360005b838110156110b957808201518184015260208101905061109e565b50505050905090810190601f1680156110e65780820380516001836020036101000a031916815260200191505b5097505050505050505060405180910390f35b600060606040519081016040528060015481526020018381526020018473ffffffffffffffffffffffffffffffffffffffff168152506000808573ffffffffffffffffffffffffffffffffffffffff1673ffffffffffffffffffffffffffffffffffffffff168152602001908152602001600020600082015181600001556020820151816001019080519060200190611193929190612124565b5060408201518160020160006101000a81548173ffffffffffffffffffffffffffffffffffffffff021916908373ffffffffffffffffffffffffffffffffffffffff16021790555090505060016000815480929190600101919050555082905092915050565b6000600a3490806001815401808255809150509060018203906000526020600020016000909192909190915055506001905090565b60008173ffffffffffffffffffffffffffffffffffffffff166108fc349081150290604051600060405180830381858888f19350505050158015611276573d6000803e3d6000fd5b50919050565b60006060600061128a6121a4565b600360008681526020019081526020016000206060604051908101604052908160008201548152602001600182018054600181600116156101000203166002900480601f01602080910402602001604051908101604052809291908181526020018280546001816001161561010002031660029004801561134c5780601f106113215761010080835404028352916020019161134c565b820191906000526020600020905b81548152906001019060200180831161132f57829003601f168201915b505050505081526020016002820160009054906101000a900460ff16600b81111561137357fe5b600b81111561137e57fe5b815250509050806000015181602001518260400151819150935093509350509193909250565b606060405190810160405280600254815260200183815260200182600b8111156113ca57fe5b815250600360006002548152602001908152602001600020600082015181600001556020820151816001019080519060200190611408929190612124565b5060408201518160020160006101000a81548160ff0219169083600b81111561142d57fe5b02179055509050506002600081548092919060010191905055505050565b60045481565b6000606060006060600060606114656121d1565b6005600089815260200190815260200160002060c0604051908101604052908160008201548152602001600182018054600181600116156101000203166002900480601f0160208091040260200160405190810160405280929190818152602001828054600181600116156101000203166002900480156115275780601f106114fc57610100808354040283529160200191611527565b820191906000526020600020905b81548152906001019060200180831161150a57829003601f168201915b505050505081526020016002820160009054906101000a900460ff16600281111561154e57fe5b600281111561155957fe5b8152602001600382018054600181600116156101000203166002900480601f0160208091040260200160405190810160405280929190818152602001828054600181600116156101000203166002900480156115f65780601f106115cb576101008083540402835291602001916115f6565b820191906000526020600020905b8154815290600101906020018083116115d957829003601f168201915b5050505050815260200160048201548152602001600582018054600181600116156101000203166002900480601f0160208091040260200160405190810160405280929190818152602001828054600181600116156101000203166002900480156116a25780601f10611677576101008083540402835291602001916116a2565b820191906000526020600020905b81548152906001019060200180831161168557829003601f168201915b5050505050815250509050806000015181602001518260400151836060015184608001518560a001518494508292508090509650965096509650965096505091939550919395565b60065481565b60a060405190810160405280600654815260200185815260200184600181111561171657fe5b815260200183600881111561172757fe5b81526020018281525060076000600654815260200190815260200160002060008201518160000155602082015181600101908051906020019061176b929190612124565b5060408201518160020160006101000a81548160ff0219169083600181111561179057fe5b021790555060608201518160020160016101000a81548160ff021916908360088111156117b957fe5b021790555060808201518160030190805190602001906117da929190612124565b5090505060066000815480929190600101919050555050505050565b60025481565b61014060405190810160405280600854815260200189815260200188600281111561182357fe5b8152602001878152602001600954815260200186815260200185815260200184815260200183815260200182600181111561185a57fe5b815250600b60006008548152602001908152602001600020600082015181600001556020820151816001019080519060200190611898929190612124565b5060408201518160020160006101000a81548160ff021916908360028111156118bd57fe5b021790555060608201518160030190805190602001906118de929190612124565b506080820151816004015560a0820151816005019080519060200190611905929190612213565b5060c0820151816006019080519060200190611922929190612213565b5060e0820151816007015561010082015181600801556101208201518160090160006101000a81548160ff0219169083600181111561195d57fe5b02179055509050506008600081548092919060010191905055506009600081548092919060010191905055505050505050505050565b60008060606119a0612260565b6000808673ffffffffffffffffffffffffffffffffffffffff1673ffffffffffffffffffffffffffffffffffffffff1681526020019081526020016000206060604051908101604052908160008201548152602001600182018054600181600116156101000203166002900480601f016020809104026020016040519081016040528092919081815260200182805460018160011615610100020316600290048015611a8d5780601f10611a6257610100808354040283529160200191611a8d565b820191906000526020600020905b815481529060010190602001808311611a7057829003601f168201915b505050505081526020016002820160009054906101000a900473ffffffffffffffffffffffffffffffffffffffff1673ffffffffffffffffffffffffffffffffffffffff1673ffffffffffffffffffffffffffffffffffffffff16815250509050806040015181600001518260200151809050935093509350509193909250565b60095481565b600060606000606060006060600080611b2b612298565b600b60008b8152602001908152602001600020610140604051908101604052908160008201548152602001600182018054600181600116156101000203166002900480601f016020809104026020016040519081016040528092919081815260200182805460018160011615610100020316600290048015611bee5780601f10611bc357610100808354040283529160200191611bee565b820191906000526020600020905b815481529060010190602001808311611bd157829003601f168201915b505050505081526020016002820160009054906101000a900460ff166002811115611c1557fe5b6002811115611c2057fe5b8152602001600382018054600181600116156101000203166002900480601f016020809104026020016040519081016040528092919081815260200182805460018160011615610100020316600290048015611cbd5780601f10611c9257610100808354040283529160200191611cbd565b820191906000526020600020905b815481529060010190602001808311611ca057829003601f168201915b505050505081526020016004820154815260200160058201805480602002602001604051908101604052809291908181526020018280548015611d1f57602002820191906000526020600020905b815481526020019060010190808311611d0b575b5050505050815260200160068201805480602002602001604051908101604052809291908181526020018280548015611d7757602002820191906000526020600020905b815481526020019060010190808311611d63575b5050505050815260200160078201548152602001600882015481526020016009820160009054906101000a900460ff166001811115611db257fe5b6001811115611dbd57fe5b815250509050806000015181602001518260400151836060015184608001518560a001518660e001518761012001518696508494508292509850985098509850985098509850985050919395975091939597565b60085481565b60c0604051908101604052806004548152602001868152602001856002811115611e3d57fe5b815260200184815260200183815260200182815250600560006004548152602001908152602001600020600082015181600001556020820151816001019080519060200190611e8d929190612124565b5060408201518160020160006101000a81548160ff02191690836002811115611eb257fe5b02179055506060820151816003019080519060200190611ed3929190612124565b506080820151816004015560a0820151816005019080519060200190611efa929190612124565b509050506004600081548092919060010191905055505050505050565b600060606000806060611f28612302565b6007600088815260200190815260200160002060a0604051908101604052908160008201548152602001600182018054600181600116156101000203166002900480601f016020809104026020016040519081016040528092919081815260200182805460018160011615610100020316600290048015611fea5780601f10611fbf57610100808354040283529160200191611fea565b820191906000526020600020905b815481529060010190602001808311611fcd57829003601f168201915b505050505081526020016002820160009054906101000a900460ff16600181111561201157fe5b600181111561201c57fe5b81526020016002820160019054906101000a900460ff16600881111561203e57fe5b600881111561204957fe5b8152602001600382018054600181600116156101000203166002900480601f0160208091040260200160405190810160405280929190818152602001828054600181600116156101000203166002900480156120e65780601f106120bb576101008083540402835291602001916120e6565b820191906000526020600020905b8154815290600101906020018083116120c957829003601f168201915b505050505081525050905080600001518160200151826040015183606001518460800151839350809050955095509550955095505091939590929450565b828054600181600116156101000203166002900490600052602060002090601f016020900481019282601f1061216557805160ff1916838001178555612193565b82800160010185558215612193579182015b82811115612192578251825591602001919060010190612177565b5b5090506121a09190612348565b5090565b60606040519081016040528060008152602001606081526020016000600b8111156121cb57fe5b81525090565b60c0604051908101604052806000815260200160608152602001600060028111156121f857fe5b81526020016060815260200160008152602001606081525090565b82805482825590600052602060002090810192821561224f579160200282015b8281111561224e578251825591602001919060010190612233565b5b50905061225c9190612348565b5090565b6060604051908101604052806000815260200160608152602001600073ffffffffffffffffffffffffffffffffffffffff1681525090565b610140604051908101604052806000815260200160608152602001600060028111156122c057fe5b8152602001606081526020016000815260200160608152602001606081526020016000815260200160008152602001600060018111156122fc57fe5b81525090565b60a06040519081016040528060008152602001606081526020016000600181111561232957fe5b81526020016000600881111561233b57fe5b8152602001606081525090565b61236a91905b8082111561236657600081600090555060010161234e565b5090565b9056fea165627a7a72305820e71d8daaeba1142b0941fa4baae234d917a0c413a5bf2f03dc9372317c0881970029",
  "source": "pragma solidity ^0.5.0;\n\nimport \"./PoliceStation.sol\";\nimport \"./Civilians.sol\";\nimport \"./Court.sol\";\n\ncontract CaseRegister is PoliceStation,Civilians,Court{\n    \n    enum CaseStatus {active,inactive}\n    enum CaseCategory {criminal,petty,civil}\n    uint public caseNo = 0;\n    uint public caseFileNo =0;\n    struct caseDetails{\n        uint caseNo;\n        string caseName;\n        CaseCategory caseCategory;\n        string FIR;\n        //string firFile;\n        uint caseFileNo;\n        uint[] petitioners;// array of petiioner id\n        uint[] accused;\n        uint courtId;\n        uint officerId;\n        CaseStatus status; \n        \n    }\n    uint[] coinsHistoryCoinBase;\n\n    mapping(uint=>caseDetails) caseReg;//mapping case number with the case details struct\n    \n    function newCase(string memory _caseName,CaseCategory _caseCategory,string memory _fir,uint[] memory _petetioners,uint[] memory _accused,uint _courtId,uint _officerId,CaseStatus _status) public{\n        caseReg[caseNo]=caseDetails(caseNo,_caseName,_caseCategory,_fir,caseFileNo,_petetioners,_accused,_courtId,_officerId,_status);\n        caseNo++;\n        caseFileNo++;\n    }\n    \n    function getCaseDetails(uint _caseNo) public view returns(uint,string memory,CaseCategory,string memory,uint,uint[] memory,uint,CaseStatus){\n        caseDetails memory cd = caseReg[_caseNo];\n        return (cd.caseNo,cd.caseName,cd.caseCategory,cd.FIR,cd.caseFileNo,cd.petitioners,cd.courtId,cd.status);\n    }\n    \n    function allocateCoins() public payable returns(bool){\n        coinsHistoryCoinBase.push(msg.value);\n        return true;\n    }\n    \n    function withdrowCoins(address payable _address)public payable returns(bool){\n        _address.transfer(msg.value);\n    }\n    \n}\n",
  "sourcePath": "/home/deepu/Deepu/CED program/practical/project/contracts/CaseRegister.sol",
  "compiler": {
    "name": "solc",
    "version": "0.5.1+commit.c8a2cb62.Emscripten.clang"
  },
  "schemaVersion": "3.0.9",
  "updatedAt": "2019-05-29T12:34:55.344Z",
  "devdoc": {
    "methods": {}
  },
  "userdoc": {
    "methods": {}
  }
}