{
  "contractName": "CaseFile",
  "abi": [
    {
      "constant": true,
      "inputs": [],
      "name": "caseFileNo",
      "outputs": [
        {
          "name": "",
          "type": "uint256"
        }
      ],
      "payable": false,
      "stateMutability": "view",
      "type": "function"
    },
    {
      "constant": true,
      "inputs": [],
      "name": "pageNumber",
      "outputs": [
        {
          "name": "",
          "type": "uint256"
        }
      ],
      "payable": false,
      "stateMutability": "view",
      "type": "function"
    },
    {
      "constant": true,
      "inputs": [
        {
          "name": "",
          "type": "uint256"
        },
        {
          "name": "",
          "type": "uint256"
        }
      ],
      "name": "filePageRel",
      "outputs": [
        {
          "name": "",
          "type": "uint256"
        }
      ],
      "payable": false,
      "stateMutability": "view",
      "type": "function"
    },
    {
      "constant": false,
      "inputs": [
        {
          "name": "_writeup",
          "type": "string"
        },
        {
          "name": "_image",
          "type": "string"
        }
      ],
      "name": "addCaseFilePage",
      "outputs": [],
      "payable": false,
      "stateMutability": "nonpayable",
      "type": "function"
    },
    {
      "constant": true,
      "inputs": [
        {
          "name": "_number",
          "type": "uint256"
        }
      ],
      "name": "getCaseFilePage",
      "outputs": [
        {
          "name": "",
          "type": "uint256"
        },
        {
          "name": "",
          "type": "uint256"
        },
        {
          "name": "",
          "type": "string"
        },
        {
          "name": "",
          "type": "string"
        }
      ],
      "payable": false,
      "stateMutability": "view",
      "type": "function"
    }
  ],
  "bytecode": "0x608060405260008055600060015534801561001957600080fd5b50610783806100296000396000f3fe608060405260043610610067576000357c0100000000000000000000000000000000000000000000000000000000900480639657ea751461006c578063b766ae821461019a578063c01817a4146102f9578063ff47c6bf14610324578063ffe2eb001461034f575b600080fd5b34801561007857600080fd5b506100a56004803603602081101561008f57600080fd5b81019080803590602001909291905050506103a8565b604051808581526020018481526020018060200180602001838103835285818151815260200191508051906020019080838360005b838110156100f55780820151818401526020810190506100da565b50505050905090810190601f1680156101225780820380516001836020036101000a031916815260200191505b50838103825284818151815260200191508051906020019080838360005b8381101561015b578082015181840152602081019050610140565b50505050905090810190601f1680156101885780820380516001836020036101000a031916815260200191505b50965050505050505060405180910390f35b3480156101a657600080fd5b506102f7600480360360408110156101bd57600080fd5b81019080803590602001906401000000008111156101da57600080fd5b8201836020820111156101ec57600080fd5b8035906020019184600183028401116401000000008311171561020e57600080fd5b91908080601f016020809104026020016040519081016040528093929190818152602001838380828437600081840152601f19601f8201169050808301925050505050505091929192908035906020019064010000000081111561027157600080fd5b82018360208201111561028357600080fd5b803590602001918460018302840111640100000000831117156102a557600080fd5b91908080601f016020809104026020016040519081016040528093929190818152602001838380828437600081840152601f19601f820116905080830192505050505050509192919290505050610559565b005b34801561030557600080fd5b5061030e610642565b6040518082815260200191505060405180910390f35b34801561033057600080fd5b50610339610648565b6040518082815260200191505060405180910390f35b34801561035b57600080fd5b506103926004803603604081101561037257600080fd5b81019080803590602001909291908035906020019092919050505061064e565b6040518082815260200191505060405180910390f35b6000806060806103b6610689565b60036000878152602001908152602001600020608060405190810160405290816000820154815260200160018201548152602001600282018054600181600116156101000203166002900480601f0160208091040260200160405190810160405280929190818152602001828054600181600116156101000203166002900480156104825780601f1061045757610100808354040283529160200191610482565b820191906000526020600020905b81548152906001019060200180831161046557829003601f168201915b50505050508152602001600382018054600181600116156101000203166002900480601f0160208091040260200160405190810160405280929190818152602001828054600181600116156101000203166002900480156105245780601f106104f957610100808354040283529160200191610524565b820191906000526020600020905b81548152906001019060200180831161050757829003601f168201915b505050505081525050905080600001518160200151826040015183606001518191508090509450945094509450509193509193565b6080604051908101604052806001548152602001600054815260200183815260200182815250600360006001548152602001908152602001600020600082015181600001556020820151816001015560408201518160020190805190602001906105c49291906106b2565b5060608201518160030190805190602001906105e19291906106b2565b50905050600160008154809291906001019190505550600260005481548110151561060857fe5b9060005260206000200160015490806001815401808255809150509060018203906000526020600020016000909192909190915055505050565b60005481565b60015481565b60028281548110151561065d57fe5b906000526020600020018181548110151561067457fe5b90600052602060002001600091509150505481565b608060405190810160405280600081526020016000815260200160608152602001606081525090565b828054600181600116156101000203166002900490600052602060002090601f016020900481019282601f106106f357805160ff1916838001178555610721565b82800160010185558215610721579182015b82811115610720578251825591602001919060010190610705565b5b50905061072e9190610732565b5090565b61075491905b80821115610750576000816000905550600101610738565b5090565b9056fea165627a7a723058201463d7623dac5e5fe1ae34f8008ccf1ce638f5418096de6c33ce3b2b83fa76d40029",
  "source": "pragma solidity ^0.5.0;\n\ncontract CaseFile{\n    uint public caseFileNo =0;\n    uint public pageNumber =0;\n    uint[][] public filePageRel;\n    struct fileDetails{\n        uint pageNumber;\n        uint caseFileNo;\n        string writeup;\n        string image;\n    }\n    \n    mapping(uint=>fileDetails) caseFileReg;\n    \n    function addCaseFilePage(string memory _writeup,string memory _image) public {\n        caseFileReg[pageNumber]=fileDetails(pageNumber,caseFileNo,_writeup,_image);\n        pageNumber++;\n        filePageRel[caseFileNo].push(pageNumber);\n    }\n    \n    function getCaseFilePage(uint _number)public view returns(uint,uint,string memory,string memory){\n        fileDetails memory cd = caseFileReg[_number];\n        return (cd.pageNumber,cd.caseFileNo,cd.writeup,cd.image);\n    }\n    \n    \n}\n ",
  "sourcePath": "/home/deepu/Deepu/CED program/practical/project/contracts/CaseFile.sol",
  "compiler": {
    "name": "solc",
    "version": "0.5.1+commit.c8a2cb62.Emscripten.clang"
  },
  "schemaVersion": "3.0.9",
  "updatedAt": "2019-05-29T23:24:40.010Z",
  "devdoc": {
    "methods": {}
  },
  "userdoc": {
    "methods": {}
  }
}