{
  "contractName": "CaseRegister",
  "abi": [
    {
      "constant": false,
      "inputs": [
        {
          "name": "_address",
          "type": "address"
        },
        {
          "name": "_stationName",
          "type": "string"
        }
      ],
      "name": "setPoliceStation",
      "outputs": [
        {
          "name": "",
          "type": "address"
        }
      ],
      "payable": false,
      "stateMutability": "nonpayable",
      "type": "function"
    },
    {
      "constant": true,
      "inputs": [
        {
          "name": "_id",
          "type": "uint256"
        }
      ],
      "name": "getOficerDetails",
      "outputs": [
        {
          "name": "",
          "type": "uint256"
        },
        {
          "name": "",
          "type": "string"
        },
        {
          "name": "",
          "type": "uint8"
        }
      ],
      "payable": false,
      "stateMutability": "view",
      "type": "function"
    },
    {
      "constant": false,
      "inputs": [
        {
          "name": "_name",
          "type": "string"
        },
        {
          "name": "_rank",
          "type": "uint8"
        }
      ],
      "name": "setOfficer",
      "outputs": [],
      "payable": false,
      "stateMutability": "nonpayable",
      "type": "function"
    },
    {
      "constant": true,
      "inputs": [],
      "name": "civilianNumber",
      "outputs": [
        {
          "name": "",
          "type": "uint256"
        }
      ],
      "payable": false,
      "stateMutability": "view",
      "type": "function"
    },
    {
      "constant": true,
      "inputs": [
        {
          "name": "_number",
          "type": "uint256"
        }
      ],
      "name": "getCivilian",
      "outputs": [
        {
          "name": "",
          "type": "uint256"
        },
        {
          "name": "",
          "type": "string"
        },
        {
          "name": "",
          "type": "uint8"
        },
        {
          "name": "",
          "type": "string"
        },
        {
          "name": "",
          "type": "uint256"
        },
        {
          "name": "",
          "type": "string"
        }
      ],
      "payable": false,
      "stateMutability": "view",
      "type": "function"
    },
    {
      "constant": true,
      "inputs": [],
      "name": "courtId",
      "outputs": [
        {
          "name": "",
          "type": "uint256"
        }
      ],
      "payable": false,
      "stateMutability": "view",
      "type": "function"
    },
    {
      "constant": false,
      "inputs": [
        {
          "name": "_name",
          "type": "string"
        },
        {
          "name": "_court_type",
          "type": "uint8"
        },
        {
          "name": "_court_hierarchi",
          "type": "uint8"
        },
        {
          "name": "_judgeName",
          "type": "string"
        }
      ],
      "name": "addCourt",
      "outputs": [],
      "payable": false,
      "stateMutability": "nonpayable",
      "type": "function"
    },
    {
      "constant": true,
      "inputs": [
        {
          "name": "_number",
          "type": "uint256"
        }
      ],
      "name": "getCaseFilePage",
      "outputs": [
        {
          "name": "",
          "type": "uint256"
        },
        {
          "name": "",
          "type": "uint256"
        },
        {
          "name": "",
          "type": "string"
        },
        {
          "name": "",
          "type": "string"
        }
      ],
      "payable": false,
      "stateMutability": "view",
      "type": "function"
    },
    {
      "constant": true,
      "inputs": [],
      "name": "officerId",
      "outputs": [
        {
          "name": "",
          "type": "uint256"
        }
      ],
      "payable": false,
      "stateMutability": "view",
      "type": "function"
    },
    {
      "constant": true,
      "inputs": [
        {
          "name": "_address",
          "type": "address"
        }
      ],
      "name": "getStationDetails",
      "outputs": [
        {
          "name": "",
          "type": "address"
        },
        {
          "name": "",
          "type": "uint256"
        },
        {
          "name": "",
          "type": "string"
        }
      ],
      "payable": false,
      "stateMutability": "view",
      "type": "function"
    },
    {
      "constant": false,
      "inputs": [
        {
          "name": "_writeup",
          "type": "string"
        },
        {
          "name": "_image",
          "type": "string"
        }
      ],
      "name": "addCaseFilePage",
      "outputs": [],
      "payable": false,
      "stateMutability": "nonpayable",
      "type": "function"
    },
    {
      "constant": true,
      "inputs": [],
      "name": "caseFileNo",
      "outputs": [
        {
          "name": "",
          "type": "uint256"
        }
      ],
      "payable": false,
      "stateMutability": "view",
      "type": "function"
    },
    {
      "constant": true,
      "inputs": [],
      "name": "caseNo",
      "outputs": [
        {
          "name": "",
          "type": "uint256"
        }
      ],
      "payable": false,
      "stateMutability": "view",
      "type": "function"
    },
    {
      "constant": false,
      "inputs": [
        {
          "name": "_name",
          "type": "string"
        },
        {
          "name": "_idType",
          "type": "uint8"
        },
        {
          "name": "_id",
          "type": "string"
        },
        {
          "name": "_age",
          "type": "uint256"
        },
        {
          "name": "_pics",
          "type": "string"
        }
      ],
      "name": "addCivilian",
      "outputs": [],
      "payable": false,
      "stateMutability": "nonpayable",
      "type": "function"
    },
    {
      "constant": true,
      "inputs": [
        {
          "name": "_number",
          "type": "uint256"
        }
      ],
      "name": "getCourtDetails",
      "outputs": [
        {
          "name": "",
          "type": "uint256"
        },
        {
          "name": "",
          "type": "string"
        },
        {
          "name": "",
          "type": "uint8"
        },
        {
          "name": "",
          "type": "uint8"
        },
        {
          "name": "",
          "type": "string"
        }
      ],
      "payable": false,
      "stateMutability": "view",
      "type": "function"
    },
    {
      "constant": true,
      "inputs": [],
      "name": "pageNumber",
      "outputs": [
        {
          "name": "",
          "type": "uint256"
        }
      ],
      "payable": false,
      "stateMutability": "view",
      "type": "function"
    },
    {
      "constant": true,
      "inputs": [
        {
          "name": "",
          "type": "uint256"
        },
        {
          "name": "",
          "type": "uint256"
        }
      ],
      "name": "filePageRel",
      "outputs": [
        {
          "name": "",
          "type": "uint256"
        }
      ],
      "payable": false,
      "stateMutability": "view",
      "type": "function"
    },
    {
      "inputs": [],
      "payable": false,
      "stateMutability": "nonpayable",
      "type": "constructor"
    },
    {
      "constant": false,
      "inputs": [
        {
          "name": "_caseName",
          "type": "string"
        },
        {
          "name": "_caseCategory",
          "type": "uint8"
        },
        {
          "name": "_fir",
          "type": "string"
        },
        {
          "name": "_petetioners",
          "type": "uint256[]"
        },
        {
          "name": "_accused",
          "type": "uint256[]"
        },
        {
          "name": "_courtId",
          "type": "uint256"
        },
        {
          "name": "_officerId",
          "type": "uint256"
        },
        {
          "name": "_status",
          "type": "uint8"
        }
      ],
      "name": "newCase",
      "outputs": [],
      "payable": false,
      "stateMutability": "nonpayable",
      "type": "function"
    },
    {
      "constant": true,
      "inputs": [
        {
          "name": "_caseNo",
          "type": "uint256"
        }
      ],
      "name": "getCaseDetails",
      "outputs": [
        {
          "name": "",
          "type": "uint256"
        },
        {
          "name": "",
          "type": "string"
        },
        {
          "name": "",
          "type": "uint8"
        },
        {
          "name": "",
          "type": "string"
        },
        {
          "name": "",
          "type": "uint256"
        },
        {
          "name": "",
          "type": "uint256[]"
        },
        {
          "name": "",
          "type": "uint256[]"
        },
        {
          "name": "",
          "type": "uint256"
        },
        {
          "name": "",
          "type": "uint256"
        },
        {
          "name": "",
          "type": "uint8"
        }
      ],
      "payable": false,
      "stateMutability": "view",
      "type": "function"
    },
    {
      "constant": false,
      "inputs": [],
      "name": "allocateCoins",
      "outputs": [
        {
          "name": "",
          "type": "bool"
        }
      ],
      "payable": true,
      "stateMutability": "payable",
      "type": "function"
    },
    {
      "constant": false,
      "inputs": [
        {
          "name": "_address",
          "type": "address"
        }
      ],
      "name": "withdrowCoins",
      "outputs": [
        {
          "name": "",
          "type": "bool"
        }
      ],
      "payable": true,
      "stateMutability": "payable",
      "type": "function"
    }
  ],
  "bytecode": "0x60806040526000600155600060025560006004556000600655600060085560006009556000600c553480156200003457600080fd5b50620000fc606060405190810160405280602681526020017f4a7564696369616c20466972737420436c61737320436f757274202d20416c6181526020017f7070757a68610000000000000000000000000000000000000000000000000000815250600180811115620000a357fe5b60026008811115620000b157fe5b6040805190810160405280600781526020017f4a616d65656c6100000000000000000000000000000000000000000000000000815250620003f7640100000000026401000000009004565b620001a26040805190810160405280600581526020017f4465657075000000000000000000000000000000000000000000000000000000815250600160028111156200014457fe5b6040805190810160405280600381526020017f31323300000000000000000000000000000000000000000000000000000000008152506019602060405190810160405280600081525062000505640100000000026401000000009004565b620002486040805190810160405280600481526020017f53616a690000000000000000000000000000000000000000000000000000000081525060016002811115620001ea57fe5b6040805190810160405280600381526020017f31323600000000000000000000000000000000000000000000000000000000008152506019602060405190810160405280600081525062000505640100000000026401000000009004565b620002ee6040805190810160405280600681526020017f5374616e6c790000000000000000000000000000000000000000000000000000815250600160028111156200029057fe5b6040805190810160405280600381526020017f31323400000000000000000000000000000000000000000000000000000000008152506019602060405190810160405280600081525062000505640100000000026401000000009004565b620003946040805190810160405280600881526020017f52616d657368616e000000000000000000000000000000000000000000000000815250600160028111156200033657fe5b6040805190810160405280600381526020017f31323500000000000000000000000000000000000000000000000000000000008152506019602060405190810160405280600081525062000505640100000000026401000000009004565b620003f16040805190810160405280601081526020017f42686172617468204368616e6472616e000000000000000000000000000000008152506005600b811115620003dc57fe5b6200060d640100000000026401000000009004565b62000767565b60a06040519081016040528060065481526020018581526020018460018111156200041e57fe5b81526020018360088111156200043057fe5b81526020018281525060076000600654815260200190815260200160002060008201518160000155602082015181600101908051906020019062000476929190620006b8565b5060408201518160020160006101000a81548160ff021916908360018111156200049c57fe5b021790555060608201518160020160016101000a81548160ff02191690836008811115620004c657fe5b02179055506080820151816003019080519060200190620004e9929190620006b8565b5090505060066000815480929190600101919050555050505050565b60c06040519081016040528060045481526020018681526020018560028111156200052c57fe5b8152602001848152602001838152602001828152506005600060045481526020019081526020016000206000820151816000015560208201518160010190805190602001906200057e929190620006b8565b5060408201518160020160006101000a81548160ff02191690836002811115620005a457fe5b02179055506060820151816003019080519060200190620005c7929190620006b8565b506080820151816004015560a0820151816005019080519060200190620005f0929190620006b8565b509050506004600081548092919060010191905055505050505050565b606060405190810160405280600254815260200183815260200182600b8111156200063457fe5b81525060036000600254815260200190815260200160002060008201518160000155602082015181600101908051906020019062000674929190620006b8565b5060408201518160020160006101000a81548160ff0219169083600b8111156200069a57fe5b02179055509050506002600081548092919060010191905055505050565b828054600181600116156101000203166002900490600052602060002090601f016020900481019282601f10620006fb57805160ff19168380011785556200072c565b828001600101855582156200072c579182015b828111156200072b5782518255916020019190600101906200070e565b5b5090506200073b91906200073f565b5090565b6200076491905b808211156200076057600081600090555060010162000746565b5090565b90565b612a4080620007776000396000f3fe608060405260043610610117576000357c010000000000000000000000000000000000000000000000000000000090048063189f987b1461011c578063237b9a2c1461024457806349e054c01461026657806352259363146102c257806353e3c81c1461039257806355bf5a5514610467578063578361ea14610492578063774ea7831461064157806389a3c7741461066c5780639657ea75146107e55780639729b3ea14610913578063a978ae531461093e578063ab03f2d514610bf4578063b766ae8214610cf8578063c01817a414610e57578063c3a9063514610e82578063ce7a99d414611078578063d8739b0d146110a3578063e8c84300146112b0578063ff47c6bf14611401578063ffe2eb001461142c575b600080fd5b34801561012857600080fd5b506102026004803603604081101561013f57600080fd5b81019080803573ffffffffffffffffffffffffffffffffffffffff1690602001909291908035906020019064010000000081111561017c57600080fd5b82018360208201111561018e57600080fd5b803590602001918460018302840111640100000000831117156101b057600080fd5b91908080601f016020809104026020016040519081016040528093929190818152602001838380828437600081840152601f19601f820116905080830192505050505050509192919290505050611485565b604051808273ffffffffffffffffffffffffffffffffffffffff1673ffffffffffffffffffffffffffffffffffffffff16815260200191505060405180910390f35b61024c611585565b604051808215151515815260200191505060405180910390f35b6102a86004803603602081101561027c57600080fd5b81019080803573ffffffffffffffffffffffffffffffffffffffff1690602001909291905050506115ba565b604051808215151515815260200191505060405180910390f35b3480156102ce57600080fd5b506102fb600480360360208110156102e557600080fd5b8101908080359060200190929190505050611608565b604051808481526020018060200183600b81111561031557fe5b60ff168152602001828103825284818151815260200191508051906020019080838360005b8381101561035557808201518184015260208101905061033a565b50505050905090810190601f1680156103825780820380516001836020036101000a031916815260200191505b5094505050505060405180910390f35b34801561039e57600080fd5b50610465600480360360408110156103b557600080fd5b81019080803590602001906401000000008111156103d257600080fd5b8201836020820111156103e457600080fd5b8035906020019184600183028401116401000000008311171561040657600080fd5b91908080601f016020809104026020016040519081016040528093929190818152602001838380828437600081840152601f19601f820116905080830192505050505050509192919290803560ff169060200190929190505050611730565b005b34801561047357600080fd5b5061047c6117d7565b6040518082815260200191505060405180910390f35b34801561049e57600080fd5b506104cb600480360360208110156104b557600080fd5b81019080803590602001909291905050506117dd565b60405180878152602001806020018660028111156104e557fe5b60ff1681526020018060200185815260200180602001848103845289818151815260200191508051906020019080838360005b83811015610533578082015181840152602081019050610518565b50505050905090810190601f1680156105605780820380516001836020036101000a031916815260200191505b50848103835287818151815260200191508051906020019080838360005b8381101561059957808201518184015260208101905061057e565b50505050905090810190601f1680156105c65780820380516001836020036101000a031916815260200191505b50848103825285818151815260200191508051906020019080838360005b838110156105ff5780820151818401526020810190506105e4565b50505050905090810190601f16801561062c5780820380516001836020036101000a031916815260200191505b50995050505050505050505060405180910390f35b34801561064d57600080fd5b50610656611a76565b6040518082815260200191505060405180910390f35b34801561067857600080fd5b506107e36004803603608081101561068f57600080fd5b81019080803590602001906401000000008111156106ac57600080fd5b8201836020820111156106be57600080fd5b803590602001918460018302840111640100000000831117156106e057600080fd5b91908080601f016020809104026020016040519081016040528093929190818152602001838380828437600081840152601f19601f820116905080830192505050505050509192919290803560ff169060200190929190803560ff1690602001909291908035906020019064010000000081111561075d57600080fd5b82018360208201111561076f57600080fd5b8035906020019184600183028401116401000000008311171561079157600080fd5b91908080601f016020809104026020016040519081016040528093929190818152602001838380828437600081840152601f19601f820116905080830192505050505050509192919290505050611a7c565b005b3480156107f157600080fd5b5061081e6004803603602081101561080857600080fd5b8101908080359060200190929190505050611b82565b604051808581526020018481526020018060200180602001838103835285818151815260200191508051906020019080838360005b8381101561086e578082015181840152602081019050610853565b50505050905090810190601f16801561089b5780820380516001836020036101000a031916815260200191505b50838103825284818151815260200191508051906020019080838360005b838110156108d45780820151818401526020810190506108b9565b50505050905090810190601f1680156109015780820380516001836020036101000a031916815260200191505b50965050505050505060405180910390f35b34801561091f57600080fd5b50610928611d33565b6040518082815260200191505060405180910390f35b34801561094a57600080fd5b50610bf2600480360361010081101561096257600080fd5b810190808035906020019064010000000081111561097f57600080fd5b82018360208201111561099157600080fd5b803590602001918460018302840111640100000000831117156109b357600080fd5b91908080601f016020809104026020016040519081016040528093929190818152602001838380828437600081840152601f19601f820116905080830192505050505050509192919290803560ff16906020019092919080359060200190640100000000811115610a2357600080fd5b820183602082011115610a3557600080fd5b80359060200191846001830284011164010000000083111715610a5757600080fd5b91908080601f016020809104026020016040519081016040528093929190818152602001838380828437600081840152601f19601f82011690508083019250505050505050919291929080359060200190640100000000811115610aba57600080fd5b820183602082011115610acc57600080fd5b80359060200191846020830284011164010000000083111715610aee57600080fd5b919080806020026020016040519081016040528093929190818152602001838360200280828437600081840152601f19601f82011690508083019250505050505050919291929080359060200190640100000000811115610b4e57600080fd5b820183602082011115610b6057600080fd5b80359060200191846020830284011164010000000083111715610b8257600080fd5b919080806020026020016040519081016040528093929190818152602001838360200280828437600081840152601f19601f8201169050808301925050505050505091929192908035906020019092919080359060200190929190803560ff169060200190929190505050611d39565b005b348015610c0057600080fd5b50610c4360048036036020811015610c1757600080fd5b81019080803573ffffffffffffffffffffffffffffffffffffffff169060200190929190505050611ed0565b604051808473ffffffffffffffffffffffffffffffffffffffff1673ffffffffffffffffffffffffffffffffffffffff16815260200183815260200180602001828103825283818151815260200191508051906020019080838360005b83811015610cbb578082015181840152602081019050610ca0565b50505050905090810190601f168015610ce85780820380516001836020036101000a031916815260200191505b5094505050505060405180910390f35b348015610d0457600080fd5b50610e5560048036036040811015610d1b57600080fd5b8101908080359060200190640100000000811115610d3857600080fd5b820183602082011115610d4a57600080fd5b80359060200191846001830284011164010000000083111715610d6c57600080fd5b91908080601f016020809104026020016040519081016040528093929190818152602001838380828437600081840152601f19601f82011690508083019250505050505050919291929080359060200190640100000000811115610dcf57600080fd5b820183602082011115610de157600080fd5b80359060200191846001830284011164010000000083111715610e0357600080fd5b91908080601f016020809104026020016040519081016040528093929190818152602001838380828437600081840152601f19601f82011690508083019250505050505050919291929050505061204b565b005b348015610e6357600080fd5b50610e6c612134565b6040518082815260200191505060405180910390f35b348015610e8e57600080fd5b50610ebb60048036036020811015610ea557600080fd5b810190808035906020019092919050505061213a565b604051808b8152602001806020018a6002811115610ed557fe5b60ff168152602001806020018981526020018060200180602001888152602001878152602001866001811115610f0757fe5b60ff16815260200185810385528e818151815260200191508051906020019080838360005b83811015610f47578082015181840152602081019050610f2c565b50505050905090810190601f168015610f745780820380516001836020036101000a031916815260200191505b5085810384528c818151815260200191508051906020019080838360005b83811015610fad578082015181840152602081019050610f92565b50505050905090810190601f168015610fda5780820380516001836020036101000a031916815260200191505b5085810383528a818151815260200191508051906020019060200280838360005b83811015611016578082015181840152602081019050610ffb565b50505050905001858103825289818151815260200191508051906020019060200280838360005b8381101561105857808201518184015260208101905061103d565b505050509050019e50505050505050505050505050505060405180910390f35b34801561108457600080fd5b5061108d61244e565b6040518082815260200191505060405180910390f35b3480156110af57600080fd5b506112ae600480360360a08110156110c657600080fd5b81019080803590602001906401000000008111156110e357600080fd5b8201836020820111156110f557600080fd5b8035906020019184600183028401116401000000008311171561111757600080fd5b91908080601f016020809104026020016040519081016040528093929190818152602001838380828437600081840152601f19601f820116905080830192505050505050509192919290803560ff1690602001909291908035906020019064010000000081111561118757600080fd5b82018360208201111561119957600080fd5b803590602001918460018302840111640100000000831117156111bb57600080fd5b91908080601f016020809104026020016040519081016040528093929190818152602001838380828437600081840152601f19601f820116905080830192505050505050509192919290803590602001909291908035906020019064010000000081111561122857600080fd5b82018360208201111561123a57600080fd5b8035906020019184600183028401116401000000008311171561125c57600080fd5b91908080601f016020809104026020016040519081016040528093929190818152602001838380828437600081840152601f19601f820116905080830192505050505050509192919290505050612454565b005b3480156112bc57600080fd5b506112e9600480360360208110156112d357600080fd5b8101908080359060200190929190505050612554565b604051808681526020018060200185600181111561130357fe5b60ff16815260200184600881111561131757fe5b60ff16815260200180602001838103835287818151815260200191508051906020019080838360005b8381101561135b578082015181840152602081019050611340565b50505050905090810190601f1680156113885780820380516001836020036101000a031916815260200191505b50838103825284818151815260200191508051906020019080838360005b838110156113c15780820151818401526020810190506113a6565b50505050905090810190601f1680156113ee5780820380516001836020036101000a031916815260200191505b5097505050505050505060405180910390f35b34801561140d57600080fd5b50611416612761565b6040518082815260200191505060405180910390f35b34801561143857600080fd5b5061146f6004803603604081101561144f57600080fd5b810190808035906020019092919080359060200190929190505050612767565b6040518082815260200191505060405180910390f35b600060606040519081016040528060015481526020018381526020018473ffffffffffffffffffffffffffffffffffffffff168152506000808573ffffffffffffffffffffffffffffffffffffffff1673ffffffffffffffffffffffffffffffffffffffff16815260200190815260200160002060008201518160000155602082015181600101908051906020019061151f9291906127a2565b5060408201518160020160006101000a81548173ffffffffffffffffffffffffffffffffffffffff021916908373ffffffffffffffffffffffffffffffffffffffff16021790555090505060016000815480929190600101919050555082905092915050565b6000600d3490806001815401808255809150509060018203906000526020600020016000909192909190915055506001905090565b60008173ffffffffffffffffffffffffffffffffffffffff166108fc349081150290604051600060405180830381858888f19350505050158015611602573d6000803e3d6000fd5b50919050565b600060606000611616612822565b600360008681526020019081526020016000206060604051908101604052908160008201548152602001600182018054600181600116156101000203166002900480601f0160208091040260200160405190810160405280929190818152602001828054600181600116156101000203166002900480156116d85780601f106116ad576101008083540402835291602001916116d8565b820191906000526020600020905b8154815290600101906020018083116116bb57829003601f168201915b505050505081526020016002820160009054906101000a900460ff16600b8111156116ff57fe5b600b81111561170a57fe5b815250509050806000015181602001518260400151819150935093509350509193909250565b606060405190810160405280600254815260200183815260200182600b81111561175657fe5b8152506003600060025481526020019081526020016000206000820151816000015560208201518160010190805190602001906117949291906127a2565b5060408201518160020160006101000a81548160ff0219169083600b8111156117b957fe5b02179055509050506002600081548092919060010191905055505050565b60045481565b6000606060006060600060606117f161284f565b6005600089815260200190815260200160002060c0604051908101604052908160008201548152602001600182018054600181600116156101000203166002900480601f0160208091040260200160405190810160405280929190818152602001828054600181600116156101000203166002900480156118b35780601f10611888576101008083540402835291602001916118b3565b820191906000526020600020905b81548152906001019060200180831161189657829003601f168201915b505050505081526020016002820160009054906101000a900460ff1660028111156118da57fe5b60028111156118e557fe5b8152602001600382018054600181600116156101000203166002900480601f0160208091040260200160405190810160405280929190818152602001828054600181600116156101000203166002900480156119825780601f1061195757610100808354040283529160200191611982565b820191906000526020600020905b81548152906001019060200180831161196557829003601f168201915b5050505050815260200160048201548152602001600582018054600181600116156101000203166002900480601f016020809104026020016040519081016040528092919081815260200182805460018160011615610100020316600290048015611a2e5780601f10611a0357610100808354040283529160200191611a2e565b820191906000526020600020905b815481529060010190602001808311611a1157829003601f168201915b5050505050815250509050806000015181602001518260400151836060015184608001518560a001518494508292508090509650965096509650965096505091939550919395565b60065481565b60a0604051908101604052806006548152602001858152602001846001811115611aa257fe5b8152602001836008811115611ab357fe5b815260200182815250600760006006548152602001908152602001600020600082015181600001556020820151816001019080519060200190611af79291906127a2565b5060408201518160020160006101000a81548160ff02191690836001811115611b1c57fe5b021790555060608201518160020160016101000a81548160ff02191690836008811115611b4557fe5b02179055506080820151816003019080519060200190611b669291906127a2565b5090505060066000815480929190600101919050555050505050565b600080606080611b90612891565b600b6000878152602001908152602001600020608060405190810160405290816000820154815260200160018201548152602001600282018054600181600116156101000203166002900480601f016020809104026020016040519081016040528092919081815260200182805460018160011615610100020316600290048015611c5c5780601f10611c3157610100808354040283529160200191611c5c565b820191906000526020600020905b815481529060010190602001808311611c3f57829003601f168201915b50505050508152602001600382018054600181600116156101000203166002900480601f016020809104026020016040519081016040528092919081815260200182805460018160011615610100020316600290048015611cfe5780601f10611cd357610100808354040283529160200191611cfe565b820191906000526020600020905b815481529060010190602001808311611ce157829003601f168201915b505050505081525050905080600001518160200151826040015183606001518191508090509450945094509450509193509193565b60025481565b61014060405190810160405280600c548152602001898152602001886002811115611d6057fe5b81526020018781526020016008548152602001868152602001858152602001848152602001838152602001826001811115611d9757fe5b815250600e6000600c548152602001908152602001600020600082015181600001556020820151816001019080519060200190611dd59291906127a2565b5060408201518160020160006101000a81548160ff02191690836002811115611dfa57fe5b02179055506060820151816003019080519060200190611e1b9291906127a2565b506080820151816004015560a0820151816005019080519060200190611e429291906128ba565b5060c0820151816006019080519060200190611e5f9291906128ba565b5060e0820151816007015561010082015181600801556101208201518160090160006101000a81548160ff02191690836001811115611e9a57fe5b0217905550905050600c600081548092919060010191905055506008600081548092919060010191905055505050505050505050565b6000806060611edd612907565b6000808673ffffffffffffffffffffffffffffffffffffffff1673ffffffffffffffffffffffffffffffffffffffff1681526020019081526020016000206060604051908101604052908160008201548152602001600182018054600181600116156101000203166002900480601f016020809104026020016040519081016040528092919081815260200182805460018160011615610100020316600290048015611fca5780601f10611f9f57610100808354040283529160200191611fca565b820191906000526020600020905b815481529060010190602001808311611fad57829003601f168201915b505050505081526020016002820160009054906101000a900473ffffffffffffffffffffffffffffffffffffffff1673ffffffffffffffffffffffffffffffffffffffff1673ffffffffffffffffffffffffffffffffffffffff16815250509050806040015181600001518260200151809050935093509350509193909250565b6080604051908101604052806009548152602001600854815260200183815260200182815250600b60006009548152602001908152602001600020600082015181600001556020820151816001015560408201518160020190805190602001906120b69291906127a2565b5060608201518160030190805190602001906120d39291906127a2565b50905050600960008154809291906001019190505550600a6008548154811015156120fa57fe5b9060005260206000200160095490806001815401808255809150509060018203906000526020600020016000909192909190915055505050565b60085481565b60006060600060606000606080600080600061215461293f565b600e60008d8152602001908152602001600020610140604051908101604052908160008201548152602001600182018054600181600116156101000203166002900480601f0160208091040260200160405190810160405280929190818152602001828054600181600116156101000203166002900480156122175780601f106121ec57610100808354040283529160200191612217565b820191906000526020600020905b8154815290600101906020018083116121fa57829003601f168201915b505050505081526020016002820160009054906101000a900460ff16600281111561223e57fe5b600281111561224957fe5b8152602001600382018054600181600116156101000203166002900480601f0160208091040260200160405190810160405280929190818152602001828054600181600116156101000203166002900480156122e65780601f106122bb576101008083540402835291602001916122e6565b820191906000526020600020905b8154815290600101906020018083116122c957829003601f168201915b50505050508152602001600482015481526020016005820180548060200260200160405190810160405280929190818152602001828054801561234857602002820191906000526020600020905b815481526020019060010190808311612334575b50505050508152602001600682018054806020026020016040519081016040528092919081815260200182805480156123a057602002820191906000526020600020905b81548152602001906001019080831161238c575b5050505050815260200160078201548152602001600882015481526020016009820160009054906101000a900460ff1660018111156123db57fe5b60018111156123e657fe5b815250509050806000015181602001518260400151836060015184608001518560a001518660c001518760e001518861010001518961012001518898508696508494508393509a509a509a509a509a509a509a509a509a509a50509193959799509193959799565b600c5481565b60c060405190810160405280600454815260200186815260200185600281111561247a57fe5b8152602001848152602001838152602001828152506005600060045481526020019081526020016000206000820151816000015560208201518160010190805190602001906124ca9291906127a2565b5060408201518160020160006101000a81548160ff021916908360028111156124ef57fe5b021790555060608201518160030190805190602001906125109291906127a2565b506080820151816004015560a08201518160050190805190602001906125379291906127a2565b509050506004600081548092919060010191905055505050505050565b6000606060008060606125656129a9565b6007600088815260200190815260200160002060a0604051908101604052908160008201548152602001600182018054600181600116156101000203166002900480601f0160208091040260200160405190810160405280929190818152602001828054600181600116156101000203166002900480156126275780601f106125fc57610100808354040283529160200191612627565b820191906000526020600020905b81548152906001019060200180831161260a57829003601f168201915b505050505081526020016002820160009054906101000a900460ff16600181111561264e57fe5b600181111561265957fe5b81526020016002820160019054906101000a900460ff16600881111561267b57fe5b600881111561268657fe5b8152602001600382018054600181600116156101000203166002900480601f0160208091040260200160405190810160405280929190818152602001828054600181600116156101000203166002900480156127235780601f106126f857610100808354040283529160200191612723565b820191906000526020600020905b81548152906001019060200180831161270657829003601f168201915b505050505081525050905080600001518160200151826040015183606001518460800151839350809050955095509550955095505091939590929450565b60095481565b600a8281548110151561277657fe5b906000526020600020018181548110151561278d57fe5b90600052602060002001600091509150505481565b828054600181600116156101000203166002900490600052602060002090601f016020900481019282601f106127e357805160ff1916838001178555612811565b82800160010185558215612811579182015b828111156128105782518255916020019190600101906127f5565b5b50905061281e91906129ef565b5090565b60606040519081016040528060008152602001606081526020016000600b81111561284957fe5b81525090565b60c06040519081016040528060008152602001606081526020016000600281111561287657fe5b81526020016060815260200160008152602001606081525090565b608060405190810160405280600081526020016000815260200160608152602001606081525090565b8280548282559060005260206000209081019282156128f6579160200282015b828111156128f55782518255916020019190600101906128da565b5b50905061290391906129ef565b5090565b6060604051908101604052806000815260200160608152602001600073ffffffffffffffffffffffffffffffffffffffff1681525090565b6101406040519081016040528060008152602001606081526020016000600281111561296757fe5b8152602001606081526020016000815260200160608152602001606081526020016000815260200160008152602001600060018111156129a357fe5b81525090565b60a0604051908101604052806000815260200160608152602001600060018111156129d057fe5b8152602001600060088111156129e257fe5b8152602001606081525090565b612a1191905b80821115612a0d5760008160009055506001016129f5565b5090565b9056fea165627a7a72305820b7d20c8973148be399c4e00b84010003ecc6d37c59e90b86b51f5f6d5d7ba2970029",
  "source": "pragma solidity ^0.5.0;\n\nimport \"./PoliceStation.sol\";\nimport \"./Civilians.sol\";\nimport \"./Court.sol\";\nimport \"./CaseFile.sol\";\n\n\n\ncontract CaseRegister is PoliceStation,Civilians,Court,CaseFile{\n    \n    constructor() public {\n    addCourt(\"Judicial First Class Court - Alappuzha\",courtType(1),hierarchi(2),\"Jameela\");\n    addCivilian(\"Deepu\",idType(1),\"123\",25,\"\");\n    addCivilian(\"Saji\",idType(1),\"126\",25,\"\");\n    addCivilian(\"Stanly\",idType(1),\"124\",25,\"\");\n    addCivilian(\"Rameshan\",idType(1),\"125\",25,\"\");\n    setOfficer(\"Bharath Chandran\",ranks(5));\n    }\n    \n    enum CaseStatus {active,inactive}\n    enum CaseCategory {criminal,petty,civil}\n    uint public caseNo = 0;\n    struct caseDetails{\n        uint caseNo;\n        string caseName;\n        CaseCategory caseCategory;\n        string FIR;\n        //string firFile;\n        uint caseFileNo;\n        uint[] petitioners;// array of petiioner id\n        uint[] accused;\n        uint courtId;\n        uint officerId;\n        CaseStatus status; \n        \n    }\n    uint[] coinsHistoryCoinBase;\n\n    mapping(uint=>caseDetails) caseReg;//mapping case number with the case details struct\n    \n    function newCase(string memory _caseName,CaseCategory _caseCategory,string memory _fir,uint[] memory _petetioners,uint[] memory _accused,uint _courtId,uint _officerId,CaseStatus _status) public{\n        caseReg[caseNo]=caseDetails(caseNo,_caseName,_caseCategory,_fir,caseFileNo,_petetioners,_accused,_courtId,_officerId,_status);\n        caseNo++;\n        caseFileNo++;\n    }\n    \n    function getCaseDetails(uint _caseNo) public view returns(uint,string memory,CaseCategory,string memory,uint,uint[] memory,uint[] memory,uint,uint,CaseStatus){\n        caseDetails memory cd = caseReg[_caseNo];\n        return (cd.caseNo,cd.caseName,cd.caseCategory,cd.FIR,cd.caseFileNo,cd.petitioners,cd.accused,cd.courtId,cd.officerId,cd.status);\n    }\n    \n    function allocateCoins() public payable returns(bool){\n        coinsHistoryCoinBase.push(msg.value);\n        return true;\n    }\n    \n    function withdrowCoins(address payable _address)public payable returns(bool){\n        _address.transfer(msg.value);\n    }\n    \n}\n",
  "sourcePath": "/home/deepu/Deepu/CED program/practical/project/contracts/CaseRegister.sol",
  "compiler": {
    "name": "solc",
    "version": "0.5.1+commit.c8a2cb62.Emscripten.clang"
  },
  "schemaVersion": "3.0.9",
  "updatedAt": "2019-05-29T23:24:54.466Z",
  "devdoc": {
    "methods": {}
  },
  "userdoc": {
    "methods": {}
  }
}