{
  "contractName": "CaseRegister",
  "abi": [
    {
      "constant": false,
      "inputs": [
        {
          "name": "_address",
          "type": "address"
        },
        {
          "name": "_stationName",
          "type": "string"
        }
      ],
      "name": "setPoliceStation",
      "outputs": [
        {
          "name": "",
          "type": "address"
        }
      ],
      "payable": false,
      "stateMutability": "nonpayable",
      "type": "function"
    },
    {
      "constant": true,
      "inputs": [
        {
          "name": "_address",
          "type": "address"
        }
      ],
      "name": "getStationDetails",
      "outputs": [
        {
          "name": "",
          "type": "address"
        },
        {
          "name": "",
          "type": "uint256"
        },
        {
          "name": "",
          "type": "string"
        }
      ],
      "payable": false,
      "stateMutability": "view",
      "type": "function"
    },
    {
      "constant": false,
      "inputs": [
        {
          "name": "_caseNo",
          "type": "uint256"
        },
        {
          "name": "_caseName",
          "type": "string"
        },
        {
          "name": "_caseCategory",
          "type": "uint8"
        },
        {
          "name": "_caseFileNo",
          "type": "uint256"
        },
        {
          "name": "_fir",
          "type": "string"
        },
        {
          "name": "_petetioners",
          "type": "uint256[]"
        },
        {
          "name": "_courtId",
          "type": "uint256"
        },
        {
          "name": "_status",
          "type": "uint8"
        }
      ],
      "name": "newCase",
      "outputs": [],
      "payable": false,
      "stateMutability": "nonpayable",
      "type": "function"
    },
    {
      "constant": true,
      "inputs": [
        {
          "name": "_caseNo",
          "type": "uint256"
        }
      ],
      "name": "getCaseDetails",
      "outputs": [
        {
          "name": "",
          "type": "uint256"
        },
        {
          "name": "",
          "type": "string"
        },
        {
          "name": "",
          "type": "uint8"
        },
        {
          "name": "",
          "type": "string"
        },
        {
          "name": "",
          "type": "uint256"
        },
        {
          "name": "",
          "type": "uint256[]"
        },
        {
          "name": "",
          "type": "uint256"
        },
        {
          "name": "",
          "type": "uint8"
        }
      ],
      "payable": false,
      "stateMutability": "view",
      "type": "function"
    },
    {
      "constant": false,
      "inputs": [],
      "name": "allocateCoins",
      "outputs": [
        {
          "name": "",
          "type": "bool"
        }
      ],
      "payable": true,
      "stateMutability": "payable",
      "type": "function"
    },
    {
      "constant": false,
      "inputs": [
        {
          "name": "_address",
          "type": "address"
        }
      ],
      "name": "withdrowCoins",
      "outputs": [
        {
          "name": "",
          "type": "bool"
        }
      ],
      "payable": true,
      "stateMutability": "payable",
      "type": "function"
    }
  ],
  "bytecode": "0x60806040526001805534801561001457600080fd5b50610f76806100246000396000f3fe608060405260043610610072576000357c010000000000000000000000000000000000000000000000000000000090048063189f987b14610077578063237b9a2c1461019f57806349e054c0146101c1578063ab03f2d51461021d578063b057a46114610321578063c3a906351461054d575b600080fd5b34801561008357600080fd5b5061015d6004803603604081101561009a57600080fd5b81019080803573ffffffffffffffffffffffffffffffffffffffff169060200190929190803590602001906401000000008111156100d757600080fd5b8201836020820111156100e957600080fd5b8035906020019184600183028401116401000000008311171561010b57600080fd5b91908080601f016020809104026020016040519081016040528093929190818152602001838380828437600081840152601f19601f8201169050808301925050505050505091929192905050506106f4565b604051808273ffffffffffffffffffffffffffffffffffffffff1673ffffffffffffffffffffffffffffffffffffffff16815260200191505060405180910390f35b6101a76107f4565b604051808215151515815260200191505060405180910390f35b610203600480360360208110156101d757600080fd5b81019080803573ffffffffffffffffffffffffffffffffffffffff169060200190929190505050610829565b604051808215151515815260200191505060405180910390f35b34801561022957600080fd5b5061026c6004803603602081101561024057600080fd5b81019080803573ffffffffffffffffffffffffffffffffffffffff169060200190929190505050610877565b604051808473ffffffffffffffffffffffffffffffffffffffff1673ffffffffffffffffffffffffffffffffffffffff16815260200183815260200180602001828103825283818151815260200191508051906020019080838360005b838110156102e45780820151818401526020810190506102c9565b50505050905090810190601f1680156103115780820380516001836020036101000a031916815260200191505b5094505050505060405180910390f35b34801561032d57600080fd5b5061054b600480360361010081101561034557600080fd5b81019080803590602001909291908035906020019064010000000081111561036c57600080fd5b82018360208201111561037e57600080fd5b803590602001918460018302840111640100000000831117156103a057600080fd5b91908080601f016020809104026020016040519081016040528093929190818152602001838380828437600081840152601f19601f820116905080830192505050505050509192919290803560ff169060200190929190803590602001909291908035906020019064010000000081111561041a57600080fd5b82018360208201111561042c57600080fd5b8035906020019184600183028401116401000000008311171561044e57600080fd5b91908080601f016020809104026020016040519081016040528093929190818152602001838380828437600081840152601f19601f820116905080830192505050505050509192919290803590602001906401000000008111156104b157600080fd5b8201836020820111156104c357600080fd5b803590602001918460208302840111640100000000831117156104e557600080fd5b919080806020026020016040519081016040528093929190818152602001838360200280828437600081840152601f19601f82011690508083019250505050505050919291929080359060200190929190803560ff1690602001909291905050506109f2565b005b34801561055957600080fd5b506105866004803603602081101561057057600080fd5b8101908080359060200190929190505050610b2a565b60405180898152602001806020018860028111156105a057fe5b60ff16815260200180602001878152602001806020018681526020018560018111156105c857fe5b60ff16815260200184810384528b818151815260200191508051906020019080838360005b838110156106085780820151818401526020810190506105ed565b50505050905090810190601f1680156106355780820380516001836020036101000a031916815260200191505b50848103835289818151815260200191508051906020019080838360005b8381101561066e578082015181840152602081019050610653565b50505050905090810190601f16801561069b5780820380516001836020036101000a031916815260200191505b50848103825287818151815260200191508051906020019060200280838360005b838110156106d75780820151818401526020810190506106bc565b505050509050019b50505050505050505050505060405180910390f35b600060606040519081016040528060015481526020018381526020018473ffffffffffffffffffffffffffffffffffffffff168152506000808573ffffffffffffffffffffffffffffffffffffffff1673ffffffffffffffffffffffffffffffffffffffff16815260200190815260200160002060008201518160000155602082015181600101908051906020019061078e929190610dc4565b5060408201518160020160006101000a81548173ffffffffffffffffffffffffffffffffffffffff021916908373ffffffffffffffffffffffffffffffffffffffff16021790555090505060016000815480929190600101919050555082905092915050565b600060023490806001815401808255809150509060018203906000526020600020016000909192909190915055506001905090565b60008173ffffffffffffffffffffffffffffffffffffffff166108fc349081150290604051600060405180830381858888f19350505050158015610871573d6000803e3d6000fd5b50919050565b6000806060610884610e44565b6000808673ffffffffffffffffffffffffffffffffffffffff1673ffffffffffffffffffffffffffffffffffffffff1681526020019081526020016000206060604051908101604052908160008201548152602001600182018054600181600116156101000203166002900480601f0160208091040260200160405190810160405280929190818152602001828054600181600116156101000203166002900480156109715780601f1061094657610100808354040283529160200191610971565b820191906000526020600020905b81548152906001019060200180831161095457829003601f168201915b505050505081526020016002820160009054906101000a900473ffffffffffffffffffffffffffffffffffffffff1673ffffffffffffffffffffffffffffffffffffffff1673ffffffffffffffffffffffffffffffffffffffff16815250509050806040015181600001518260200151809050935093509350509193909250565b61010060405190810160405280898152602001888152602001876002811115610a1757fe5b8152602001858152602001868152602001848152602001838152602001826001811115610a4057fe5b815250600360008a8152602001908152602001600020600082015181600001556020820151816001019080519060200190610a7c929190610dc4565b5060408201518160020160006101000a81548160ff02191690836002811115610aa157fe5b02179055506060820151816003019080519060200190610ac2929190610dc4565b506080820151816004015560a0820151816005019080519060200190610ae9929190610e7c565b5060c0820151816006015560e08201518160070160006101000a81548160ff02191690836001811115610b1857fe5b02179055509050505050505050505050565b600060606000606060006060600080610b41610ec9565b600360008b8152602001908152602001600020610100604051908101604052908160008201548152602001600182018054600181600116156101000203166002900480601f016020809104026020016040519081016040528092919081815260200182805460018160011615610100020316600290048015610c045780601f10610bd957610100808354040283529160200191610c04565b820191906000526020600020905b815481529060010190602001808311610be757829003601f168201915b505050505081526020016002820160009054906101000a900460ff166002811115610c2b57fe5b6002811115610c3657fe5b8152602001600382018054600181600116156101000203166002900480601f016020809104026020016040519081016040528092919081815260200182805460018160011615610100020316600290048015610cd35780601f10610ca857610100808354040283529160200191610cd3565b820191906000526020600020905b815481529060010190602001808311610cb657829003601f168201915b505050505081526020016004820154815260200160058201805480602002602001604051908101604052809291908181526020018280548015610d3557602002820191906000526020600020905b815481526020019060010190808311610d21575b50505050508152602001600682015481526020016007820160009054906101000a900460ff166001811115610d6657fe5b6001811115610d7157fe5b815250509050806000015181602001518260400151836060015184608001518560a001518660c001518760e001518696508494508292509850985098509850985098509850985050919395975091939597565b828054600181600116156101000203166002900490600052602060002090601f016020900481019282601f10610e0557805160ff1916838001178555610e33565b82800160010185558215610e33579182015b82811115610e32578251825591602001919060010190610e17565b5b509050610e409190610f25565b5090565b6060604051908101604052806000815260200160608152602001600073ffffffffffffffffffffffffffffffffffffffff1681525090565b828054828255906000526020600020908101928215610eb8579160200282015b82811115610eb7578251825591602001919060010190610e9c565b5b509050610ec59190610f25565b5090565b61010060405190810160405280600081526020016060815260200160006002811115610ef157fe5b81526020016060815260200160008152602001606081526020016000815260200160006001811115610f1f57fe5b81525090565b610f4791905b80821115610f43576000816000905550600101610f2b565b5090565b9056fea165627a7a7230582007359f624a86c66b10a425799ca66aed3e6aeb36db3361804767e718a15b14bc0029",
  "source": "pragma solidity ^0.5.0;\n\nimport \"./PoliceStation.sol\";\n\ncontract CaseRegister is PoliceStation{\n    \n    enum CaseStatus {active,inactive}\n    enum CaseCategory {criminal,petty,civil}\n    \n    struct caseDetails{\n        uint caseNo;\n        string caseName;\n        CaseCategory caseCategory;\n        string FIR;\n        //string firFile;\n        uint caseFileNo;\n        uint[] petitioners;// array of petiioner id\n        uint courtId;\n        CaseStatus status; \n        \n    }\n    uint[] coinsHistoryCoinBase;\n\n    mapping(uint=>caseDetails) caseReg;//mapping case number with the case details struct\n    \n    function newCase(uint _caseNo,string memory _caseName,CaseCategory _caseCategory,uint _caseFileNo,string memory _fir,uint[] memory _petetioners,uint _courtId,CaseStatus _status) public{\n        caseReg[_caseNo]=caseDetails(_caseNo,_caseName,_caseCategory,_fir,_caseFileNo,_petetioners,_courtId,_status);\n    }\n    \n    function getCaseDetails(uint _caseNo) public view returns(uint,string memory,CaseCategory,string memory,uint,uint[] memory,uint,CaseStatus){\n        caseDetails memory cd = caseReg[_caseNo];\n        return (cd.caseNo,cd.caseName,cd.caseCategory,cd.FIR,cd.caseFileNo,cd.petitioners,cd.courtId,cd.status);\n    }\n    \n    function allocateCoins() public payable returns(bool){\n        coinsHistoryCoinBase.push(msg.value);\n        return true;\n    }\n    \n    function withdrowCoins(address payable _address)public payable returns(bool){\n        _address.transfer(msg.value);\n    }\n    \n}\n",
  "sourcePath": "/home/deepu/Deepu/CED program/practical/project/contracts/CaseRegister.sol",
  "compiler": {
    "name": "solc",
    "version": "0.5.1+commit.c8a2cb62.Emscripten.clang"
  },
  "schemaVersion": "3.0.9",
  "updatedAt": "2019-05-27T23:09:29.901Z",
  "devdoc": {
    "methods": {}
  },
  "userdoc": {
    "methods": {}
  }
}