{
  "contractName": "CaseRegister",
  "abi": [
    {
      "constant": false,
      "inputs": [
        {
          "name": "_address",
          "type": "address"
        },
        {
          "name": "_stationName",
          "type": "string"
        }
      ],
      "name": "setPoliceStation",
      "outputs": [],
      "payable": false,
      "stateMutability": "nonpayable",
      "type": "function"
    },
    {
      "constant": true,
      "inputs": [
        {
          "name": "_address",
          "type": "address"
        }
      ],
      "name": "getStationDetails",
      "outputs": [
        {
          "name": "",
          "type": "address"
        },
        {
          "name": "",
          "type": "uint256"
        },
        {
          "name": "",
          "type": "string"
        }
      ],
      "payable": false,
      "stateMutability": "view",
      "type": "function"
    },
    {
      "constant": false,
      "inputs": [
        {
          "name": "_caseNo",
          "type": "uint256"
        },
        {
          "name": "_caseName",
          "type": "string"
        },
        {
          "name": "_caseCategory",
          "type": "uint8"
        },
        {
          "name": "_caseFileNo",
          "type": "uint256"
        },
        {
          "name": "_fir",
          "type": "string"
        },
        {
          "name": "_petetioners",
          "type": "uint256[]"
        },
        {
          "name": "_courtId",
          "type": "uint256"
        },
        {
          "name": "_status",
          "type": "uint8"
        }
      ],
      "name": "newCase",
      "outputs": [],
      "payable": false,
      "stateMutability": "nonpayable",
      "type": "function"
    },
    {
      "constant": true,
      "inputs": [
        {
          "name": "_caseNo",
          "type": "uint256"
        }
      ],
      "name": "getCaseDetails",
      "outputs": [
        {
          "name": "",
          "type": "uint256"
        },
        {
          "name": "",
          "type": "string"
        },
        {
          "name": "",
          "type": "uint8"
        },
        {
          "name": "",
          "type": "string"
        },
        {
          "name": "",
          "type": "uint256"
        },
        {
          "name": "",
          "type": "uint256[]"
        },
        {
          "name": "",
          "type": "uint256"
        },
        {
          "name": "",
          "type": "uint8"
        }
      ],
      "payable": false,
      "stateMutability": "view",
      "type": "function"
    }
  ],
  "bytecode": "0x60806040526001805534801561001457600080fd5b50610e18806100246000396000f3fe60806040526004361061005c576000357c010000000000000000000000000000000000000000000000000000000090048063189f987b14610061578063ab03f2d514610149578063b057a4611461024d578063c3a9063514610479575b600080fd5b34801561006d57600080fd5b506101476004803603604081101561008457600080fd5b81019080803573ffffffffffffffffffffffffffffffffffffffff169060200190929190803590602001906401000000008111156100c157600080fd5b8201836020820111156100d357600080fd5b803590602001918460018302840111640100000000831117156100f557600080fd5b91908080601f016020809104026020016040519081016040528093929190818152602001838380828437600081840152601f19601f820116905080830192505050505050509192919290505050610620565b005b34801561015557600080fd5b506101986004803603602081101561016c57600080fd5b81019080803573ffffffffffffffffffffffffffffffffffffffff169060200190929190505050610719565b604051808473ffffffffffffffffffffffffffffffffffffffff1673ffffffffffffffffffffffffffffffffffffffff16815260200183815260200180602001828103825283818151815260200191508051906020019080838360005b838110156102105780820151818401526020810190506101f5565b50505050905090810190601f16801561023d5780820380516001836020036101000a031916815260200191505b5094505050505060405180910390f35b34801561025957600080fd5b50610477600480360361010081101561027157600080fd5b81019080803590602001909291908035906020019064010000000081111561029857600080fd5b8201836020820111156102aa57600080fd5b803590602001918460018302840111640100000000831117156102cc57600080fd5b91908080601f016020809104026020016040519081016040528093929190818152602001838380828437600081840152601f19601f820116905080830192505050505050509192919290803560ff169060200190929190803590602001909291908035906020019064010000000081111561034657600080fd5b82018360208201111561035857600080fd5b8035906020019184600183028401116401000000008311171561037a57600080fd5b91908080601f016020809104026020016040519081016040528093929190818152602001838380828437600081840152601f19601f820116905080830192505050505050509192919290803590602001906401000000008111156103dd57600080fd5b8201836020820111156103ef57600080fd5b8035906020019184602083028401116401000000008311171561041157600080fd5b919080806020026020016040519081016040528093929190818152602001838360200280828437600081840152601f19601f82011690508083019250505050505050919291929080359060200190929190803560ff169060200190929190505050610894565b005b34801561048557600080fd5b506104b26004803603602081101561049c57600080fd5b81019080803590602001909291905050506109cc565b60405180898152602001806020018860028111156104cc57fe5b60ff16815260200180602001878152602001806020018681526020018560018111156104f457fe5b60ff16815260200184810384528b818151815260200191508051906020019080838360005b83811015610534578082015181840152602081019050610519565b50505050905090810190601f1680156105615780820380516001836020036101000a031916815260200191505b50848103835289818151815260200191508051906020019080838360005b8381101561059a57808201518184015260208101905061057f565b50505050905090810190601f1680156105c75780820380516001836020036101000a031916815260200191505b50848103825287818151815260200191508051906020019060200280838360005b838110156106035780820151818401526020810190506105e8565b505050509050019b50505050505050505050505060405180910390f35b60606040519081016040528060015481526020018281526020018373ffffffffffffffffffffffffffffffffffffffff168152506000808473ffffffffffffffffffffffffffffffffffffffff1673ffffffffffffffffffffffffffffffffffffffff1681526020019081526020016000206000820151816000015560208201518160010190805190602001906106b8929190610c66565b5060408201518160020160006101000a81548173ffffffffffffffffffffffffffffffffffffffff021916908373ffffffffffffffffffffffffffffffffffffffff1602179055509050506001600081548092919060010191905055505050565b6000806060610726610ce6565b6000808673ffffffffffffffffffffffffffffffffffffffff1673ffffffffffffffffffffffffffffffffffffffff1681526020019081526020016000206060604051908101604052908160008201548152602001600182018054600181600116156101000203166002900480601f0160208091040260200160405190810160405280929190818152602001828054600181600116156101000203166002900480156108135780601f106107e857610100808354040283529160200191610813565b820191906000526020600020905b8154815290600101906020018083116107f657829003601f168201915b505050505081526020016002820160009054906101000a900473ffffffffffffffffffffffffffffffffffffffff1673ffffffffffffffffffffffffffffffffffffffff1673ffffffffffffffffffffffffffffffffffffffff16815250509050806040015181600001518260200151809050935093509350509193909250565b610100604051908101604052808981526020018881526020018760028111156108b957fe5b81526020018581526020018681526020018481526020018381526020018260018111156108e257fe5b815250600260008a815260200190815260200160002060008201518160000155602082015181600101908051906020019061091e929190610c66565b5060408201518160020160006101000a81548160ff0219169083600281111561094357fe5b02179055506060820151816003019080519060200190610964929190610c66565b506080820151816004015560a082015181600501908051906020019061098b929190610d1e565b5060c0820151816006015560e08201518160070160006101000a81548160ff021916908360018111156109ba57fe5b02179055509050505050505050505050565b6000606060006060600060606000806109e3610d6b565b600260008b8152602001908152602001600020610100604051908101604052908160008201548152602001600182018054600181600116156101000203166002900480601f016020809104026020016040519081016040528092919081815260200182805460018160011615610100020316600290048015610aa65780601f10610a7b57610100808354040283529160200191610aa6565b820191906000526020600020905b815481529060010190602001808311610a8957829003601f168201915b505050505081526020016002820160009054906101000a900460ff166002811115610acd57fe5b6002811115610ad857fe5b8152602001600382018054600181600116156101000203166002900480601f016020809104026020016040519081016040528092919081815260200182805460018160011615610100020316600290048015610b755780601f10610b4a57610100808354040283529160200191610b75565b820191906000526020600020905b815481529060010190602001808311610b5857829003601f168201915b505050505081526020016004820154815260200160058201805480602002602001604051908101604052809291908181526020018280548015610bd757602002820191906000526020600020905b815481526020019060010190808311610bc3575b50505050508152602001600682015481526020016007820160009054906101000a900460ff166001811115610c0857fe5b6001811115610c1357fe5b815250509050806000015181602001518260400151836060015184608001518560a001518660c001518760e001518696508494508292509850985098509850985098509850985050919395975091939597565b828054600181600116156101000203166002900490600052602060002090601f016020900481019282601f10610ca757805160ff1916838001178555610cd5565b82800160010185558215610cd5579182015b82811115610cd4578251825591602001919060010190610cb9565b5b509050610ce29190610dc7565b5090565b6060604051908101604052806000815260200160608152602001600073ffffffffffffffffffffffffffffffffffffffff1681525090565b828054828255906000526020600020908101928215610d5a579160200282015b82811115610d59578251825591602001919060010190610d3e565b5b509050610d679190610dc7565b5090565b61010060405190810160405280600081526020016060815260200160006002811115610d9357fe5b81526020016060815260200160008152602001606081526020016000815260200160006001811115610dc157fe5b81525090565b610de991905b80821115610de5576000816000905550600101610dcd565b5090565b9056fea165627a7a72305820ec8d4e9cf51953db0e4ec4d5e7356896aa24aa9dbdff96b8098b5021f68463c70029",
  "source": "pragma solidity ^0.5.0;\n\nimport \"./PoliceStation.sol\";\n\ncontract CaseRegister is PoliceStation{\n    \n    enum CaseStatus {active,inactive}\n    enum CaseCategory {criminal,petty,civil}\n    \n    struct caseDetails{\n        uint caseNo;\n        string caseName;\n        CaseCategory caseCategory;\n        string FIR;\n        //string firFile;\n        uint caseFileNo;\n        uint[] petitioners;// array of petiioner id\n        uint courtId;\n        CaseStatus status; \n        \n    }\n    \n    mapping(uint=>caseDetails) caseReg;//mapping case number with the case details struct\n    \n    function newCase(uint _caseNo,string memory _caseName,CaseCategory _caseCategory,uint _caseFileNo,string memory _fir,uint[] memory _petetioners,uint _courtId,CaseStatus _status) public{\n        caseReg[_caseNo]=caseDetails(_caseNo,_caseName,_caseCategory,_fir,_caseFileNo,_petetioners,_courtId,_status);\n    }\n    \n    function getCaseDetails(uint _caseNo) public view returns(uint,string memory,CaseCategory,string memory,uint,uint[] memory,uint,CaseStatus){\n        caseDetails memory cd = caseReg[_caseNo];\n        return (cd.caseNo,cd.caseName,cd.caseCategory,cd.FIR,cd.caseFileNo,cd.petitioners,cd.courtId,cd.status);\n    }\n    \n}\n",
  "sourcePath": "/home/deepu/Deepu/CED program/practical/project/contracts/CaseRegister.sol",
  "compiler": {
    "name": "solc",
    "version": "0.5.1+commit.c8a2cb62.Emscripten.clang"
  },
  "schemaVersion": "3.0.9",
  "updatedAt": "2019-05-25T06:43:17.890Z",
  "devdoc": {
    "methods": {}
  },
  "userdoc": {
    "methods": {}
  }
}