{
  "contractName": "CaseRegister",
  "abi": [
    {
      "constant": false,
      "inputs": [
        {
          "name": "_address",
          "type": "address"
        },
        {
          "name": "_stationNo",
          "type": "uint256"
        },
        {
          "name": "_stationName",
          "type": "string"
        },
        {
          "name": "_caseFileNo",
          "type": "uint256"
        },
        {
          "name": "_fir",
          "type": "string"
        },
        {
          "name": "_petetioners",
          "type": "uint256[]"
        },
        {
          "name": "_courtId",
          "type": "uint256"
        },
        {
          "name": "_status",
          "type": "uint8"
        }
      ],
      "name": "setPoliceStation",
      "outputs": [],
      "payable": false,
      "stateMutability": "nonpayable",
      "type": "function"
    },
    {
      "constant": true,
      "inputs": [
        {
          "name": "_address",
          "type": "address"
        }
      ],
      "name": "getStationDetails",
      "outputs": [
        {
          "name": "",
          "type": "address"
        },
        {
          "name": "",
          "type": "uint256"
        },
        {
          "name": "",
          "type": "string"
        },
        {
          "name": "",
          "type": "string"
        },
        {
          "name": "",
          "type": "uint256"
        },
        {
          "name": "",
          "type": "uint256[]"
        },
        {
          "name": "",
          "type": "uint256"
        },
        {
          "name": "",
          "type": "uint8"
        }
      ],
      "payable": false,
      "stateMutability": "view",
      "type": "function"
    },
    {
      "constant": false,
      "inputs": [
        {
          "name": "_caseNo",
          "type": "uint256"
        },
        {
          "name": "_caseName",
          "type": "string"
        },
        {
          "name": "_caseCategory",
          "type": "uint8"
        },
        {
          "name": "_caseFileNo",
          "type": "uint256"
        },
        {
          "name": "_fir",
          "type": "string"
        },
        {
          "name": "_petetioners",
          "type": "uint256[]"
        },
        {
          "name": "_courtId",
          "type": "uint256"
        },
        {
          "name": "_status",
          "type": "uint8"
        }
      ],
      "name": "newCase",
      "outputs": [],
      "payable": false,
      "stateMutability": "nonpayable",
      "type": "function"
    },
    {
      "constant": true,
      "inputs": [
        {
          "name": "_caseNo",
          "type": "uint256"
        }
      ],
      "name": "getCaseDetails",
      "outputs": [
        {
          "name": "",
          "type": "uint256"
        },
        {
          "name": "",
          "type": "string"
        },
        {
          "name": "",
          "type": "uint8"
        },
        {
          "name": "",
          "type": "string"
        },
        {
          "name": "",
          "type": "uint256"
        },
        {
          "name": "",
          "type": "uint256[]"
        },
        {
          "name": "",
          "type": "uint256"
        },
        {
          "name": "",
          "type": "uint8"
        }
      ],
      "payable": false,
      "stateMutability": "view",
      "type": "function"
    }
  ],
  "bytecode": "0x608060405234801561001057600080fd5b50610e15806100206000396000f3fe608060405260043610610062576000357c0100000000000000000000000000000000000000000000000000000000900463ffffffff1680636577feee14610067578063ab03f2d514610159578063b057a4611461025d578063c3a9063514610489575b600080fd5b34801561007357600080fd5b506101576004803603606081101561008a57600080fd5b81019080803573ffffffffffffffffffffffffffffffffffffffff16906020019092919080359060200190929190803590602001906401000000008111156100d157600080fd5b8201836020820111156100e357600080fd5b8035906020019184600183028401116401000000008311171561010557600080fd5b91908080601f016020809104026020016040519081016040528093929190818152602001838380828437600081840152601f19601f820116905080830192505050505050509192919290505050610630565b005b34801561016557600080fd5b506101a86004803603602081101561017c57600080fd5b81019080803573ffffffffffffffffffffffffffffffffffffffff169060200190929190505050610716565b604051808473ffffffffffffffffffffffffffffffffffffffff1673ffffffffffffffffffffffffffffffffffffffff16815260200183815260200180602001828103825283818151815260200191508051906020019080838360005b83811015610220578082015181840152602081019050610205565b50505050905090810190601f16801561024d5780820380516001836020036101000a031916815260200191505b5094505050505060405180910390f35b34801561026957600080fd5b50610487600480360361010081101561028157600080fd5b8101908080359060200190929190803590602001906401000000008111156102a857600080fd5b8201836020820111156102ba57600080fd5b803590602001918460018302840111640100000000831117156102dc57600080fd5b91908080601f016020809104026020016040519081016040528093929190818152602001838380828437600081840152601f19601f820116905080830192505050505050509192919290803560ff169060200190929190803590602001909291908035906020019064010000000081111561035657600080fd5b82018360208201111561036857600080fd5b8035906020019184600183028401116401000000008311171561038a57600080fd5b91908080601f016020809104026020016040519081016040528093929190818152602001838380828437600081840152601f19601f820116905080830192505050505050509192919290803590602001906401000000008111156103ed57600080fd5b8201836020820111156103ff57600080fd5b8035906020019184602083028401116401000000008311171561042157600080fd5b919080806020026020016040519081016040528093929190818152602001838360200280828437600081840152601f19601f82011690508083019250505050505050919291929080359060200190929190803560ff169060200190929190505050610891565b005b34801561049557600080fd5b506104c2600480360360208110156104ac57600080fd5b81019080803590602001909291905050506109c9565b60405180898152602001806020018860028111156104dc57fe5b60ff168152602001806020018781526020018060200186815260200185600181111561050457fe5b60ff16815260200184810384528b818151815260200191508051906020019080838360005b83811015610544578082015181840152602081019050610529565b50505050905090810190601f1680156105715780820380516001836020036101000a031916815260200191505b50848103835289818151815260200191508051906020019080838360005b838110156105aa57808201518184015260208101905061058f565b50505050905090810190601f1680156105d75780820380516001836020036101000a031916815260200191505b50848103825287818151815260200191508051906020019060200280838360005b838110156106135780820151818401526020810190506105f8565b505050509050019b50505050505050505050505060405180910390f35b6060604051908101604052808381526020018281526020018473ffffffffffffffffffffffffffffffffffffffff168152506000808573ffffffffffffffffffffffffffffffffffffffff1673ffffffffffffffffffffffffffffffffffffffff1681526020019081526020016000206000820151816000015560208201518160010190805190602001906106c6929190610c63565b5060408201518160020160006101000a81548173ffffffffffffffffffffffffffffffffffffffff021916908373ffffffffffffffffffffffffffffffffffffffff160217905550905050505050565b6000806060610723610ce3565b6000808673ffffffffffffffffffffffffffffffffffffffff1673ffffffffffffffffffffffffffffffffffffffff1681526020019081526020016000206060604051908101604052908160008201548152602001600182018054600181600116156101000203166002900480601f0160208091040260200160405190810160405280929190818152602001828054600181600116156101000203166002900480156108105780601f106107e557610100808354040283529160200191610810565b820191906000526020600020905b8154815290600101906020018083116107f357829003601f168201915b505050505081526020016002820160009054906101000a900473ffffffffffffffffffffffffffffffffffffffff1673ffffffffffffffffffffffffffffffffffffffff1673ffffffffffffffffffffffffffffffffffffffff16815250509050806040015181600001518260200151809050935093509350509193909250565b610100604051908101604052808981526020018881526020018760028111156108b657fe5b81526020018581526020018681526020018481526020018381526020018260018111156108df57fe5b815250600160008a815260200190815260200160002060008201518160000155602082015181600101908051906020019061091b929190610c63565b5060408201518160020160006101000a81548160ff0219169083600281111561094057fe5b02179055506060820151816003019080519060200190610961929190610c63565b506080820151816004015560a0820151816005019080519060200190610988929190610d1b565b5060c0820151816006015560e08201518160070160006101000a81548160ff021916908360018111156109b757fe5b02179055509050505050505050505050565b6000606060006060600060606000806109e0610d68565b600160008b8152602001908152602001600020610100604051908101604052908160008201548152602001600182018054600181600116156101000203166002900480601f016020809104026020016040519081016040528092919081815260200182805460018160011615610100020316600290048015610aa35780601f10610a7857610100808354040283529160200191610aa3565b820191906000526020600020905b815481529060010190602001808311610a8657829003601f168201915b505050505081526020016002820160009054906101000a900460ff166002811115610aca57fe5b6002811115610ad557fe5b8152602001600382018054600181600116156101000203166002900480601f016020809104026020016040519081016040528092919081815260200182805460018160011615610100020316600290048015610b725780601f10610b4757610100808354040283529160200191610b72565b820191906000526020600020905b815481529060010190602001808311610b5557829003601f168201915b505050505081526020016004820154815260200160058201805480602002602001604051908101604052809291908181526020018280548015610bd457602002820191906000526020600020905b815481526020019060010190808311610bc0575b50505050508152602001600682015481526020016007820160009054906101000a900460ff166001811115610c0557fe5b6001811115610c1057fe5b815250509050806000015181602001518260400151836060015184608001518560a001518660c001518760e001518696508494508292509850985098509850985098509850985050919395975091939597565b828054600181600116156101000203166002900490600052602060002090601f016020900481019282601f10610ca457805160ff1916838001178555610cd2565b82800160010185558215610cd2579182015b82811115610cd1578251825591602001919060010190610cb6565b5b509050610cdf9190610dc4565b5090565b6060604051908101604052806000815260200160608152602001600073ffffffffffffffffffffffffffffffffffffffff1681525090565b828054828255906000526020600020908101928215610d57579160200282015b82811115610d56578251825591602001919060010190610d3b565b5b509050610d649190610dc4565b5090565b61010060405190810160405280600081526020016060815260200160006002811115610d9057fe5b81526020016060815260200160008152602001606081526020016000815260200160006001811115610dbe57fe5b81525090565b610de691905b80821115610de2576000816000905550600101610dca565b5090565b9056fea165627a7a72305820a54f35dc3358ac9d98c2b182754b7eb00aab08e4a744028c05c5d12be78b7c520029",
  "source": "pragma solidity ^0.5.0;\n\nimport \"./PoliceStation.sol\";\n\ncontract CaseRegister is PoliceStation{\n    \n    enum CaseStatus {active,inactive}\n    enum CaseCategory {criminal,petty,civil}\n    \n    struct caseDetails{\n        uint caseNo;\n        string caseName;\n        CaseCategory caseCategory;\n        string FIR;\n        //string firFile;\n        uint caseFileNo;\n        uint[] petitioners;// array of petiioner id\n        uint courtId;\n        CaseStatus status; \n        \n    }\n    \n    mapping(uint=>caseDetails) caseReg;//mapping case number with the case details struct\n    \n    function newCase(uint _caseNo,string memory _caseName,CaseCategory _caseCategory,uint _caseFileNo,string memory _fir,uint[] memory _petetioners,uint _courtId,CaseStatus _status) public{\n        caseReg[_caseNo]=caseDetails(_caseNo,_caseName,_caseCategory,_fir,_caseFileNo,_petetioners,_courtId,_status);\n    }\n    \n    function getCaseDetails(uint _caseNo) public view returns(uint,string memory,CaseCategory,string memory,uint,uint[] memory,uint,CaseStatus){\n        caseDetails memory cd = caseReg[_caseNo];\n        return (cd.caseNo,cd.caseName,cd.caseCategory,cd.FIR,cd.caseFileNo,cd.petitioners,cd.courtId,cd.status);\n    }\n    \n}\n",
  "sourcePath": "/home/deepu/Deepu/CED program/practical/project/contracts/CaseRegister.sol",
  "compiler": {
    "name": "solc",
    "version": "0.5.0+commit.1d4f565a.Emscripten.clang"
  },
  "schemaVersion": "3.0.9",
  "updatedAt": "2019-05-16T21:43:12.740Z",
  "devdoc": {
    "methods": {}
  },
  "userdoc": {
    "methods": {}
  }
}