{
  "contractName": "Civilians",
  "abi": [
    {
      "constant": true,
      "inputs": [],
      "name": "civilianNumber",
      "outputs": [
        {
          "name": "",
          "type": "uint256"
        }
      ],
      "payable": false,
      "stateMutability": "view",
      "type": "function"
    },
    {
      "constant": false,
      "inputs": [
        {
          "name": "_name",
          "type": "string"
        },
        {
          "name": "_idType",
          "type": "uint8"
        },
        {
          "name": "_id",
          "type": "string"
        },
        {
          "name": "_age",
          "type": "uint256"
        },
        {
          "name": "_pics",
          "type": "string"
        }
      ],
      "name": "addCivilian",
      "outputs": [],
      "payable": false,
      "stateMutability": "nonpayable",
      "type": "function"
    },
    {
      "constant": true,
      "inputs": [
        {
          "name": "_number",
          "type": "uint256"
        }
      ],
      "name": "getCivilian",
      "outputs": [
        {
          "name": "",
          "type": "uint256"
        },
        {
          "name": "",
          "type": "string"
        },
        {
          "name": "",
          "type": "uint8"
        },
        {
          "name": "",
          "type": "string"
        },
        {
          "name": "",
          "type": "uint256"
        },
        {
          "name": "",
          "type": "string"
        }
      ],
      "payable": false,
      "stateMutability": "view",
      "type": "function"
    }
  ],
  "bytecode": "0x60806040526000805534801561001457600080fd5b506108ed806100246000396000f3fe608060405260043610610051576000357c01000000000000000000000000000000000000000000000000000000009004806355bf5a5514610056578063578361ea14610081578063d8739b0d14610230575b600080fd5b34801561006257600080fd5b5061006b61043d565b6040518082815260200191505060405180910390f35b34801561008d57600080fd5b506100ba600480360360208110156100a457600080fd5b8101908080359060200190929190505050610443565b60405180878152602001806020018660028111156100d457fe5b60ff1681526020018060200185815260200180602001848103845289818151815260200191508051906020019080838360005b83811015610122578082015181840152602081019050610107565b50505050905090810190601f16801561014f5780820380516001836020036101000a031916815260200191505b50848103835287818151815260200191508051906020019080838360005b8381101561018857808201518184015260208101905061016d565b50505050905090810190601f1680156101b55780820380516001836020036101000a031916815260200191505b50848103825285818151815260200191508051906020019080838360005b838110156101ee5780820151818401526020810190506101d3565b50505050905090810190601f16801561021b5780820380516001836020036101000a031916815260200191505b50995050505050505050505060405180910390f35b34801561023c57600080fd5b5061043b600480360360a081101561025357600080fd5b810190808035906020019064010000000081111561027057600080fd5b82018360208201111561028257600080fd5b803590602001918460018302840111640100000000831117156102a457600080fd5b91908080601f016020809104026020016040519081016040528093929190818152602001838380828437600081840152601f19601f820116905080830192505050505050509192919290803560ff1690602001909291908035906020019064010000000081111561031457600080fd5b82018360208201111561032657600080fd5b8035906020019184600183028401116401000000008311171561034857600080fd5b91908080601f016020809104026020016040519081016040528093929190818152602001838380828437600081840152601f19601f82011690508083019250505050505050919291929080359060200190929190803590602001906401000000008111156103b557600080fd5b8201836020820111156103c757600080fd5b803590602001918460018302840111640100000000831117156103e957600080fd5b91908080601f016020809104026020016040519081016040528093929190818152602001838380828437600081840152601f19601f8201169050808301925050505050505091929192905050506106dc565b005b60005481565b6000606060006060600060606104576107da565b6001600089815260200190815260200160002060c0604051908101604052908160008201548152602001600182018054600181600116156101000203166002900480601f0160208091040260200160405190810160405280929190818152602001828054600181600116156101000203166002900480156105195780601f106104ee57610100808354040283529160200191610519565b820191906000526020600020905b8154815290600101906020018083116104fc57829003601f168201915b505050505081526020016002820160009054906101000a900460ff16600281111561054057fe5b600281111561054b57fe5b8152602001600382018054600181600116156101000203166002900480601f0160208091040260200160405190810160405280929190818152602001828054600181600116156101000203166002900480156105e85780601f106105bd576101008083540402835291602001916105e8565b820191906000526020600020905b8154815290600101906020018083116105cb57829003601f168201915b5050505050815260200160048201548152602001600582018054600181600116156101000203166002900480601f0160208091040260200160405190810160405280929190818152602001828054600181600116156101000203166002900480156106945780601f1061066957610100808354040283529160200191610694565b820191906000526020600020905b81548152906001019060200180831161067757829003601f168201915b5050505050815250509050806000015181602001518260400151836060015184608001518560a001518494508292508090509650965096509650965096505091939550919395565b60c060405190810160405280600054815260200186815260200185600281111561070257fe5b815260200184815260200183815260200182815250600160008054815260200190815260200160002060008201518160000155602082015181600101908051906020019061075192919061081c565b5060408201518160020160006101000a81548160ff0219169083600281111561077657fe5b0217905550606082015181600301908051906020019061079792919061081c565b506080820151816004015560a08201518160050190805190602001906107be92919061081c565b5090505060008081548092919060010191905055505050505050565b60c06040519081016040528060008152602001606081526020016000600281111561080157fe5b81526020016060815260200160008152602001606081525090565b828054600181600116156101000203166002900490600052602060002090601f016020900481019282601f1061085d57805160ff191683800117855561088b565b8280016001018555821561088b579182015b8281111561088a57825182559160200191906001019061086f565b5b509050610898919061089c565b5090565b6108be91905b808211156108ba5760008160009055506001016108a2565b5090565b9056fea165627a7a72305820446aed7be3b3c470fdbeaa67b5070356e425943b1a72e60506ae8c1d5843843c0029",
  "source": "pragma solidity ^0.5.0;\n\ncontract Civilians{\n    uint public civilianNumber = 0;\n    enum idType{votersId,adharCard,drivingLicence}\n    struct civilianDetails{\n        uint civilianNo;\n        string name;\n        idType id;\n        string idNumber;\n        uint age;\n        string pics;\n    }\n    \n    mapping(uint=>civilianDetails) civilianReg;\n    \n    function addCivilian(string memory _name,idType _idType,string memory _id,uint _age,string memory _pics) public {\n       // _pics = ;\n        civilianReg[civilianNumber]=civilianDetails(civilianNumber,_name,_idType,_id,_age,_pics);\n        civilianNumber++;\n    }\n    \n    function getCivilian(uint _number)public view returns(uint,string memory,idType,string memory,uint,string memory){\n        civilianDetails memory cd = civilianReg[_number];\n        return (cd.civilianNo,cd.name,cd.id,cd.idNumber,cd.age,cd.pics);\n    }\n    \n    \n}",
  "sourcePath": "/home/deepu/Deepu/CED program/practical/project/contracts/Civilians.sol",
  "compiler": {
    "name": "solc",
    "version": "0.5.1+commit.c8a2cb62.Emscripten.clang"
  },
  "schemaVersion": "3.0.9",
  "updatedAt": "2019-05-29T23:24:40.018Z",
  "devdoc": {
    "methods": {}
  },
  "userdoc": {
    "methods": {}
  }
}