{
  "contractName": "Court",
  "abi": [
    {
      "constant": true,
      "inputs": [],
      "name": "courtId",
      "outputs": [
        {
          "name": "",
          "type": "uint256"
        }
      ],
      "payable": false,
      "stateMutability": "view",
      "type": "function"
    },
    {
      "constant": false,
      "inputs": [
        {
          "name": "_name",
          "type": "string"
        },
        {
          "name": "_court_type",
          "type": "uint8"
        },
        {
          "name": "_court_hierarchi",
          "type": "uint8"
        },
        {
          "name": "_judgeName",
          "type": "string"
        }
      ],
      "name": "addCourt",
      "outputs": [],
      "payable": false,
      "stateMutability": "nonpayable",
      "type": "function"
    },
    {
      "constant": true,
      "inputs": [
        {
          "name": "_number",
          "type": "uint256"
        }
      ],
      "name": "getCourtDetails",
      "outputs": [
        {
          "name": "",
          "type": "uint256"
        },
        {
          "name": "",
          "type": "string"
        },
        {
          "name": "",
          "type": "uint8"
        },
        {
          "name": "",
          "type": "uint8"
        },
        {
          "name": "",
          "type": "string"
        }
      ],
      "payable": false,
      "stateMutability": "view",
      "type": "function"
    }
  ],
  "bytecode": "0x60806040526000805534801561001457600080fd5b50610779806100246000396000f3fe608060405260043610610051576000357c010000000000000000000000000000000000000000000000000000000090048063774ea7831461005657806389a3c77414610081578063e8c84300146101fa575b600080fd5b34801561006257600080fd5b5061006b61034b565b6040518082815260200191505060405180910390f35b34801561008d57600080fd5b506101f8600480360360808110156100a457600080fd5b81019080803590602001906401000000008111156100c157600080fd5b8201836020820111156100d357600080fd5b803590602001918460018302840111640100000000831117156100f557600080fd5b91908080601f016020809104026020016040519081016040528093929190818152602001838380828437600081840152601f19601f820116905080830192505050505050509192919290803560ff169060200190929190803560ff1690602001909291908035906020019064010000000081111561017257600080fd5b82018360208201111561018457600080fd5b803590602001918460018302840111640100000000831117156101a657600080fd5b91908080601f016020809104026020016040519081016040528093929190818152602001838380828437600081840152601f19601f820116905080830192505050505050509192919290505050610351565b005b34801561020657600080fd5b506102336004803603602081101561021d57600080fd5b8101908080359060200190929190505050610455565b604051808681526020018060200185600181111561024d57fe5b60ff16815260200184600881111561026157fe5b60ff16815260200180602001838103835287818151815260200191508051906020019080838360005b838110156102a557808201518184015260208101905061028a565b50505050905090810190601f1680156102d25780820380516001836020036101000a031916815260200191505b50838103825284818151815260200191508051906020019080838360005b8381101561030b5780820151818401526020810190506102f0565b50505050905090810190601f1680156103385780820380516001836020036101000a031916815260200191505b5097505050505050505060405180910390f35b60005481565b60a060405190810160405280600054815260200185815260200184600181111561037757fe5b815260200183600881111561038857fe5b81526020018281525060016000805481526020019081526020016000206000820151816000015560208201518160010190805190602001906103cb929190610662565b5060408201518160020160006101000a81548160ff021916908360018111156103f057fe5b021790555060608201518160020160016101000a81548160ff0219169083600881111561041957fe5b0217905550608082015181600301908051906020019061043a929190610662565b50905050600080815480929190600101919050555050505050565b6000606060008060606104666106e2565b6001600088815260200190815260200160002060a0604051908101604052908160008201548152602001600182018054600181600116156101000203166002900480601f0160208091040260200160405190810160405280929190818152602001828054600181600116156101000203166002900480156105285780601f106104fd57610100808354040283529160200191610528565b820191906000526020600020905b81548152906001019060200180831161050b57829003601f168201915b505050505081526020016002820160009054906101000a900460ff16600181111561054f57fe5b600181111561055a57fe5b81526020016002820160019054906101000a900460ff16600881111561057c57fe5b600881111561058757fe5b8152602001600382018054600181600116156101000203166002900480601f0160208091040260200160405190810160405280929190818152602001828054600181600116156101000203166002900480156106245780601f106105f957610100808354040283529160200191610624565b820191906000526020600020905b81548152906001019060200180831161060757829003601f168201915b505050505081525050905080600001518160200151826040015183606001518460800151839350809050955095509550955095505091939590929450565b828054600181600116156101000203166002900490600052602060002090601f016020900481019282601f106106a357805160ff19168380011785556106d1565b828001600101855582156106d1579182015b828111156106d05782518255916020019190600101906106b5565b5b5090506106de9190610728565b5090565b60a06040519081016040528060008152602001606081526020016000600181111561070957fe5b81526020016000600881111561071b57fe5b8152602001606081525090565b61074a91905b8082111561074657600081600090555060010161072e565b5090565b9056fea165627a7a723058200816fa6b57c262df4255d2da4462f9e644e7d76c6c580174d177ef0b3726f25c0029",
  "source": "pragma solidity ^0.5.0;\n\ncontract Court{\n    uint public courtId = 0;\n    enum courtType{civil,criminal}\n    enum hierarchi{TCMC,SCMC,FCMC,DistricCourt,DistrictFamilyCourt,Collector,BoardOfRevenue,HighCourt,SupremeCourt}\n   \n    struct courtDetails{\n        uint courtId;\n        string name;\n        courtType court_type;\n        hierarchi court_hierarchi;\n        string judgeName;\n    }\n    \n    mapping(uint=>courtDetails) courtReg;\n    \n    function addCourt(string memory _name,courtType _court_type,hierarchi _court_hierarchi,string memory _judgeName) public {\n        courtReg[courtId]=courtDetails(courtId,_name,_court_type,_court_hierarchi,_judgeName);\n        courtId++;\n    }\n    \n    function getCourtDetails(uint _number)public view returns(uint,string memory,courtType,hierarchi,string memory){\n        courtDetails memory cd = courtReg[_number];\n        return (cd.courtId,cd.name,cd.court_type,cd.court_hierarchi,cd.judgeName);\n    }\n}",
  "sourcePath": "/home/deepu/Deepu/CED program/practical/project/contracts/Court.sol",
  "compiler": {
    "name": "solc",
    "version": "0.5.1+commit.c8a2cb62.Emscripten.clang"
  },
  "schemaVersion": "3.0.9",
  "updatedAt": "2019-05-29T11:41:11.860Z",
  "devdoc": {
    "methods": {}
  },
  "userdoc": {
    "methods": {}
  }
}