{
  "contractName": "PoliceStation",
  "abi": [
    {
      "constant": false,
      "inputs": [
        {
          "name": "_address",
          "type": "address"
        },
        {
          "name": "_stationName",
          "type": "string"
        }
      ],
      "name": "setPoliceStation",
      "outputs": [
        {
          "name": "",
          "type": "address"
        }
      ],
      "payable": false,
      "stateMutability": "nonpayable",
      "type": "function"
    },
    {
      "constant": true,
      "inputs": [
        {
          "name": "_address",
          "type": "address"
        }
      ],
      "name": "getStationDetails",
      "outputs": [
        {
          "name": "",
          "type": "address"
        },
        {
          "name": "",
          "type": "uint256"
        },
        {
          "name": "",
          "type": "string"
        }
      ],
      "payable": false,
      "stateMutability": "view",
      "type": "function"
    }
  ],
  "bytecode": "0x60806040526001805534801561001457600080fd5b506105fb806100246000396000f3fe608060405260043610610046576000357c010000000000000000000000000000000000000000000000000000000090048063189f987b1461004b578063ab03f2d514610173575b600080fd5b34801561005757600080fd5b506101316004803603604081101561006e57600080fd5b81019080803573ffffffffffffffffffffffffffffffffffffffff169060200190929190803590602001906401000000008111156100ab57600080fd5b8201836020820111156100bd57600080fd5b803590602001918460018302840111640100000000831117156100df57600080fd5b91908080601f016020809104026020016040519081016040528093929190818152602001838380828437600081840152601f19601f820116905080830192505050505050509192919290505050610277565b604051808273ffffffffffffffffffffffffffffffffffffffff1673ffffffffffffffffffffffffffffffffffffffff16815260200191505060405180910390f35b34801561017f57600080fd5b506101c26004803603602081101561019657600080fd5b81019080803573ffffffffffffffffffffffffffffffffffffffff169060200190929190505050610377565b604051808473ffffffffffffffffffffffffffffffffffffffff1673ffffffffffffffffffffffffffffffffffffffff16815260200183815260200180602001828103825283818151815260200191508051906020019080838360005b8381101561023a57808201518184015260208101905061021f565b50505050905090810190601f1680156102675780820380516001836020036101000a031916815260200191505b5094505050505060405180910390f35b600060606040519081016040528060015481526020018381526020018473ffffffffffffffffffffffffffffffffffffffff168152506000808573ffffffffffffffffffffffffffffffffffffffff1673ffffffffffffffffffffffffffffffffffffffff1681526020019081526020016000206000820151816000015560208201518160010190805190602001906103119291906104f2565b5060408201518160020160006101000a81548173ffffffffffffffffffffffffffffffffffffffff021916908373ffffffffffffffffffffffffffffffffffffffff16021790555090505060016000815480929190600101919050555082905092915050565b6000806060610384610572565b6000808673ffffffffffffffffffffffffffffffffffffffff1673ffffffffffffffffffffffffffffffffffffffff1681526020019081526020016000206060604051908101604052908160008201548152602001600182018054600181600116156101000203166002900480601f0160208091040260200160405190810160405280929190818152602001828054600181600116156101000203166002900480156104715780601f1061044657610100808354040283529160200191610471565b820191906000526020600020905b81548152906001019060200180831161045457829003601f168201915b505050505081526020016002820160009054906101000a900473ffffffffffffffffffffffffffffffffffffffff1673ffffffffffffffffffffffffffffffffffffffff1673ffffffffffffffffffffffffffffffffffffffff16815250509050806040015181600001518260200151809050935093509350509193909250565b828054600181600116156101000203166002900490600052602060002090601f016020900481019282601f1061053357805160ff1916838001178555610561565b82800160010185558215610561579182015b82811115610560578251825591602001919060010190610545565b5b50905061056e91906105aa565b5090565b6060604051908101604052806000815260200160608152602001600073ffffffffffffffffffffffffffffffffffffffff1681525090565b6105cc91905b808211156105c85760008160009055506001016105b0565b5090565b9056fea165627a7a723058206096263af5d3cc39698c5a3b49ef4e16c3573423e752569767a6379ad3f75d530029",
  "source": "pragma solidity ^0.5.0;\n//pragma experimental ABIEncoderV2;\n\ncontract PoliceStation{\n    \n    struct stationDetails{\n        uint stationNo;\n        string stationName;\n        address stationAccAddress;\n    }\n   \n    mapping (address=>stationDetails) station;\n    uint stationNo=1;\n    \n    \n    function setPoliceStation(address _address,string memory _stationName)public returns(address){\n        station[_address] = stationDetails(stationNo,_stationName,_address);\n        stationNo++;\n        return _address;\n    }\n    \n    function getStationDetails(address _address) public view returns(address,uint,string memory){\n        stationDetails memory sd = station[_address];\n        return(sd.stationAccAddress,sd.stationNo,sd.stationName);\n    }\n    \n}",
  "sourcePath": "/home/deepu/Deepu/CED program/practical/project/contracts/PoliceStation.sol",
  "compiler": {
    "name": "solc",
    "version": "0.5.1+commit.c8a2cb62.Emscripten.clang"
  },
  "schemaVersion": "3.0.9",
  "updatedAt": "2019-05-27T23:05:37.440Z",
  "devdoc": {
    "methods": {}
  },
  "userdoc": {
    "methods": {}
  }
}