{
  "contractName": "PoliceStation",
  "abi": [
    {
      "constant": true,
      "inputs": [],
      "name": "officerId",
      "outputs": [
        {
          "name": "",
          "type": "uint256"
        }
      ],
      "payable": false,
      "stateMutability": "view",
      "type": "function"
    },
    {
      "constant": false,
      "inputs": [
        {
          "name": "_address",
          "type": "address"
        },
        {
          "name": "_stationName",
          "type": "string"
        }
      ],
      "name": "setPoliceStation",
      "outputs": [
        {
          "name": "",
          "type": "address"
        }
      ],
      "payable": false,
      "stateMutability": "nonpayable",
      "type": "function"
    },
    {
      "constant": true,
      "inputs": [
        {
          "name": "_address",
          "type": "address"
        }
      ],
      "name": "getStationDetails",
      "outputs": [
        {
          "name": "",
          "type": "address"
        },
        {
          "name": "",
          "type": "uint256"
        },
        {
          "name": "",
          "type": "string"
        }
      ],
      "payable": false,
      "stateMutability": "view",
      "type": "function"
    },
    {
      "constant": false,
      "inputs": [
        {
          "name": "_name",
          "type": "string"
        },
        {
          "name": "_rank",
          "type": "uint8"
        }
      ],
      "name": "setOfficer",
      "outputs": [],
      "payable": false,
      "stateMutability": "nonpayable",
      "type": "function"
    },
    {
      "constant": true,
      "inputs": [
        {
          "name": "_id",
          "type": "uint256"
        }
      ],
      "name": "getOficerDetails",
      "outputs": [
        {
          "name": "",
          "type": "uint256"
        },
        {
          "name": "",
          "type": "string"
        },
        {
          "name": "",
          "type": "uint8"
        }
      ],
      "payable": false,
      "stateMutability": "view",
      "type": "function"
    }
  ],
  "bytecode": "0x60806040526000600155600060025534801561001a57600080fd5b506109ee8061002a6000396000f3fe608060405260043610610067576000357c010000000000000000000000000000000000000000000000000000000090048063189f987b1461006c578063522593631461019457806353e3c81c146102645780639729b3ea14610339578063ab03f2d514610364575b600080fd5b34801561007857600080fd5b506101526004803603604081101561008f57600080fd5b81019080803573ffffffffffffffffffffffffffffffffffffffff169060200190929190803590602001906401000000008111156100cc57600080fd5b8201836020820111156100de57600080fd5b8035906020019184600183028401116401000000008311171561010057600080fd5b91908080601f016020809104026020016040519081016040528093929190818152602001838380828437600081840152601f19601f820116905080830192505050505050509192919290505050610468565b604051808273ffffffffffffffffffffffffffffffffffffffff1673ffffffffffffffffffffffffffffffffffffffff16815260200191505060405180910390f35b3480156101a057600080fd5b506101cd600480360360208110156101b757600080fd5b8101908080359060200190929190505050610568565b604051808481526020018060200183600b8111156101e757fe5b60ff168152602001828103825284818151815260200191508051906020019080838360005b8381101561022757808201518184015260208101905061020c565b50505050905090810190601f1680156102545780820380516001836020036101000a031916815260200191505b5094505050505060405180910390f35b34801561027057600080fd5b506103376004803603604081101561028757600080fd5b81019080803590602001906401000000008111156102a457600080fd5b8201836020820111156102b657600080fd5b803590602001918460018302840111640100000000831117156102d857600080fd5b91908080601f016020809104026020016040519081016040528093929190818152602001838380828437600081840152601f19601f820116905080830192505050505050509192919290803560ff169060200190929190505050610690565b005b34801561034557600080fd5b5061034e610737565b6040518082815260200191505060405180910390f35b34801561037057600080fd5b506103b36004803603602081101561038757600080fd5b81019080803573ffffffffffffffffffffffffffffffffffffffff16906020019092919050505061073d565b604051808473ffffffffffffffffffffffffffffffffffffffff1673ffffffffffffffffffffffffffffffffffffffff16815260200183815260200180602001828103825283818151815260200191508051906020019080838360005b8381101561042b578082015181840152602081019050610410565b50505050905090810190601f1680156104585780820380516001836020036101000a031916815260200191505b5094505050505060405180910390f35b600060606040519081016040528060015481526020018381526020018473ffffffffffffffffffffffffffffffffffffffff168152506000808573ffffffffffffffffffffffffffffffffffffffff1673ffffffffffffffffffffffffffffffffffffffff1681526020019081526020016000206000820151816000015560208201518160010190805190602001906105029291906108b8565b5060408201518160020160006101000a81548173ffffffffffffffffffffffffffffffffffffffff021916908373ffffffffffffffffffffffffffffffffffffffff16021790555090505060016000815480929190600101919050555082905092915050565b600060606000610576610938565b600360008681526020019081526020016000206060604051908101604052908160008201548152602001600182018054600181600116156101000203166002900480601f0160208091040260200160405190810160405280929190818152602001828054600181600116156101000203166002900480156106385780601f1061060d57610100808354040283529160200191610638565b820191906000526020600020905b81548152906001019060200180831161061b57829003601f168201915b505050505081526020016002820160009054906101000a900460ff16600b81111561065f57fe5b600b81111561066a57fe5b815250509050806000015181602001518260400151819150935093509350509193909250565b606060405190810160405280600254815260200183815260200182600b8111156106b657fe5b8152506003600060025481526020019081526020016000206000820151816000015560208201518160010190805190602001906106f49291906108b8565b5060408201518160020160006101000a81548160ff0219169083600b81111561071957fe5b02179055509050506002600081548092919060010191905055505050565b60025481565b600080606061074a610965565b6000808673ffffffffffffffffffffffffffffffffffffffff1673ffffffffffffffffffffffffffffffffffffffff1681526020019081526020016000206060604051908101604052908160008201548152602001600182018054600181600116156101000203166002900480601f0160208091040260200160405190810160405280929190818152602001828054600181600116156101000203166002900480156108375780601f1061080c57610100808354040283529160200191610837565b820191906000526020600020905b81548152906001019060200180831161081a57829003601f168201915b505050505081526020016002820160009054906101000a900473ffffffffffffffffffffffffffffffffffffffff1673ffffffffffffffffffffffffffffffffffffffff1673ffffffffffffffffffffffffffffffffffffffff16815250509050806040015181600001518260200151809050935093509350509193909250565b828054600181600116156101000203166002900490600052602060002090601f016020900481019282601f106108f957805160ff1916838001178555610927565b82800160010185558215610927579182015b8281111561092657825182559160200191906001019061090b565b5b509050610934919061099d565b5090565b60606040519081016040528060008152602001606081526020016000600b81111561095f57fe5b81525090565b6060604051908101604052806000815260200160608152602001600073ffffffffffffffffffffffffffffffffffffffff1681525090565b6109bf91905b808211156109bb5760008160009055506001016109a3565b5090565b9056fea165627a7a72305820c11b6cfb285e04473a29d80f7e706312a4faa407dde96b61a64385b44656f8d20029",
  "source": "pragma solidity ^0.5.0;\n//pragma experimental ABIEncoderV2;\n\ncontract PoliceStation{\n    \n    struct stationDetails{\n        uint stationNo;\n        string stationName;\n        address stationAccAddress;\n    }\n   \n    mapping (address=>stationDetails) station;\n    uint stationNo=0;\n    \n    function setPoliceStation(address _address,string memory _stationName)public returns(address){\n        station[_address] = stationDetails(stationNo,_stationName,_address);\n        stationNo++;\n        return _address;\n    }\n    \n    function getStationDetails(address _address) public view returns(address,uint,string memory){\n        stationDetails memory sd = station[_address];\n        return(sd.stationAccAddress,sd.stationNo,sd.stationName);\n    }\n    \n    enum ranks{pc,hc,asi,si,ci,dsp,sp,dig,ig,adgp,dgp,dgpChief}\n    uint public officerId = 0;\n    struct officerDetails{\n        uint id;\n        string name;\n        ranks rank;\n    }\n    mapping (uint=>officerDetails) officerReg;\n    \n    function setOfficer(string memory _name,ranks _rank)public {\n        officerReg[officerId] = officerDetails(officerId,_name,_rank);\n        officerId++;\n    }\n    \n    function getOficerDetails(uint _id) public view returns(uint,string memory,ranks){\n        officerDetails memory od = officerReg[_id];\n        return(od.id,od.name,od.rank);\n    }\n}",
  "sourcePath": "/home/deepu/Deepu/CED program/practical/project/contracts/PoliceStation.sol",
  "compiler": {
    "name": "solc",
    "version": "0.5.1+commit.c8a2cb62.Emscripten.clang"
  },
  "schemaVersion": "3.0.9",
  "updatedAt": "2019-05-29T11:41:11.864Z",
  "devdoc": {
    "methods": {}
  },
  "userdoc": {
    "methods": {}
  }
}